:020000040800F2
:10000000C80A00209D01000857310008BF2D0008D4
:10001000553100088D0400086D390008000000000B
:10002000000000000000000000000000DF310008B8
:10003000990400080000000079310008E13100084F
:10004000B7010008B7010008B7010008B7010008B0
:10005000B7010008B70100089D0400083906000830
:100060003F060008B701000845060008B701000870
:10007000B7010008B7010008B7010008B701000880
:10008000B7010008B701000899030008B70100088C
:10009000B7010008B7010008B70100084D060008C5
:1000A000B7010008B7010008B7010008B701000850
:1000B000F1320008B7010008B7010008B7010008D5
:1000C000B7010008B7010008B7010008B701000830
:1000D000B7010008B7010008E9380008B7010008B7
:1000E000B7010008B7010008B7010008B701000810
:1000F000B7010008B7010008B7010008B701000800
:10010000000000000000000000000000B70100082F
:10011000B7010008B7010008B7010008B7010008DF
:10012000B7010008B7010008B7010008B7010008CF
:10013000B7010008B701000800000000000000003F
:10014000B7010008B7010008B7010008000000006F
:10015000000000000000000000000000000000009F
:100160000000000000000000B7010008B70100080F
:10017000B7010008000000000000000000000000BF
:1001800000000000B7010008DFF80CD000F0E2F832
:1001900000480047613E0008C80A00200648804722
:1001A00006480047FEE7FEE7FEE7FEE7FEE7FEE75C
:1001B000FEE7FEE7FEE7FEE7893200088901000856
:1001C000202A04DB203A21FA02F00021704721FAAC
:1001D00002F3D040C2F12002914008431946704713
:1001E000421E12F8013F002BFBD111F8013B02F82F
:1001F000013B002BF9D17047421C10F8011B00296C
:10020000FBD1801A7047034611F8012B00F8012B2F
:10021000002AF9D1184670470EB5C10F80EAE07088
:100220000844CA07002140F233438DE80E000A4615
:100230000B4600F040F803B000BD000030B5041ECE
:1002400071F1000404DB4FF00044404264EB010113
:10025000141E73F1000405DB1C464FF000435242AC
:1002600063EB0403994208BF904230BD30B50B46A2
:10027000014600202022012409E021FA02F59D42D6
:1002800005D303FA02F5491B04FA02F52844151EAA
:10029000A2F10102F1DC30BD10B5141E73F10004AF
:1002A00008DA401C41F1000192185B411A4301D168
:1002B00020F0010010BD2DE9F04D92469B4611B192
:1002C000B1FA81F202E0B0FA80F22032904600F0FA
:1002D00053F804460F4640EA0A0041EA0B01534630
:1002E0005A46084313D0114653EA010019D0C8F109
:1002F00040025046FFF764FF05460E4650465946F9
:10030000424600F039F8084305D0012004E02046B9
:100310003946BDE8F08D0020054346EAE0762C43DF
:1003200037430A986305E40AA0EB08000022FD0A9F
:1003300044EA47540A3002D500200146E9E70105A6
:1003400010196941DDE9084500196941BDE8F04D22
:10035000A2E70000064C074D06E0E06840F001030C
:1003600094E8070098471034AC42F6D3FFF710FF2B
:100370000845000828450008202A04DB203A00FA36
:1003800002F1002070479140C2F1200320FA03F3EC
:10039000194390407047000010B5084800F0C6FBB4
:1003A000064800F0BFFB024605A1064803F0E0FA4C
:1003B000BDE81040014800F099BE00003401002063
:1003C00025640000D000002070B5044600688168F4
:1003D00001F00301012926D10168C90723D08168F2
:1003E00001F00D01012910D1816841F00201816005
:1003F00021680320086001F04DF805460FE000BFBA
:1004000001F048F8401B022809D9606C40F0100048
:100410006064A06C40F00100A064012070BD206801
:100420008068C007ECD1002070BD000070B50446A4
:100430000068816801F00301012902D10168C90740
:1004400020D18168104A11420DD1816841F001012B
:10045000816001F01FF805460FE000BF01F01AF8B7
:10046000401B022809D9606C40F010006064A06C49
:1004700040F00100A064012070BD20680068C04306
:10048000C007EBD1002070BD3F000080FEE710B533
:1004900003F0DEFB002010BD704700002DE9F041A5
:1004A000012000F01DFF0024DFF87C815F4F604DCC
:1004B000604E07E034B1012C0BD0022C15D0032C78
:1004C00038D123E001221021304600F0DEFF002267
:1004D00005E000221021304600F0D7FF0122202144
:1004E000304600F0D2FF00220AE000221021304600
:1004F00000F0CBFF00222021304600F0C6FF012291
:100500004021304600F0C1FF00220FE00022102100
:10051000304600F0BAFF00222021304600F0B5FF3F
:1005200000224021304600F0B0FF012280213046F9
:1005300000F0ABFF0121284600F0A2FFC0B1BCB91A
:100540003868032801D028B109E000203860C8F8D5
:10055000000004E0032002213860C8F800100121E7
:10056000284600F08DFF0028F9D1142000F0A4FEE9
:100570000121284600F084FFB8B1012C15D138685C
:10058000032809D1D8F80000C21C142A01DD02207A
:1005900000E0C01CC8F800000121284600F070FFF0
:1005A0000028F9D1142000F087FE0121284600F030
:1005B00067FF78B1022C0DD13868032801D103F010
:1005C000C7FB0121284600F05BFF0028F9D1142069
:1005D00000F072FE0121284600F052FF50B1032CBA
:1005E00008D10121284600F04BFF0028F9D1142042
:1005F00000F062FE01221021304600F046FF012289
:100600002021304600F041FF01224021304600F019
:100610003CFF01228021304600F037FF641C042C8F
:10062000FFF648AFBDE8F081200000201800002050
:1006300000040048000C0048022000F051BE0420D5
:1006400000F04EBE102000F04BBE000010B54FF47D
:10065000007000F045FEBDE810404FF47A7364224C
:100660000149024802F050BB3C00002098020020E3
:100670007047704770477047F0B5002302684FF02D
:10068000A04C3D4C95B01F46624501D100940DE051
:10069000A24202D1CDF800C008E0384D384EAA423F
:1006A00001D1009602E0B24214D1009590F840507A
:1006B000012D12D0012580F8405095686D0752D465
:1006C000009DAD686D074ED4624501D0A24206D1AF
:1006D0002C4A05E0012015B0F0BD0220FBE72A4AB4
:1006E0000D6840F61F741DB39568466B25F4604590
:1006F00045EA46354E68354395600568AE6806F0B4
:100700000306012E02D12D68ED0731D1009DAD68A1
:1007100005F00305012D03D1009D2D68ED0727D1BC
:100720000D6889680D439168A1430D4395601FE0F2
:10073000916821F46041916001688D6805F00305BE
:10074000012D02D10968C90712D10099896801F009
:100750000301012903D100990968C90708D19168EB
:10076000A143916004E0416C41F020014164012308
:1007700080F840701846AEE70001005000040050B9
:10078000000500500003005000070050F0B595B080
:100790000024009490F840202546012A19D0012712
:1007A00080F8407003689A6852077CD44A681F2614
:1007B000052A11D2D3F830C002EB42025200964013
:1007C0002CEA060C0E6896404CEA060CC3F830C0C2
:1007D00035E0022015B0F0BD0A2A0FD2D3F834C09C
:1007E000521F02EB4202520096402CEA060C0E68A1
:1007F00096404CEA060CC3F834C020E00F2A0FD212
:10080000D3F838C00A3A02EB4202520096402CEA72
:10081000060C0E6896404CEA060CC3F838C00EE091
:10082000D3F83CC00F3A02EB4202520096402CEA49
:10083000060C0E6896404CEA060CC3F83CC00268F1
:10084000936813F00C0F4FF0070374D1D1F800E058
:10085000BEF10A0F10D39669AEF10A0E0EEB4E0CE4
:1008600003FA0CFE26EA0E06D1F808E00EFA0CFE9A
:1008700046EA0E0696610FE0D2F814C00EEB4E0663
:1008800003FA06FE2CEA0E0CD1F808E00EFA06FE7A
:100890004CEA0E0CC2F814C002684E69D2F80CC0C3
:1008A000CCF3C10C00E0FDE04FEA4C0C06FA0CF66C
:1008B000D1F810E0DFF848C2BEF1010F42D0BEF11E
:1008C000020F4DD0BEF1030F58D0BEF1040F63D01C
:1008D000166E91F800C006F0F846B6EB8C6F03D1A7
:1008E000166E26F0004616660268566E91F800C035
:1008F00006F0F846B6EB8C6F03D1566E26F0004634
:1009000056660268966E91F800C006F0F846B6EB9F
:100910008C6F03D1966E26F0004696660268D66EFE
:1009200091F800C006F0F846B6EB8C6F03D1D66E96
:1009300026F00046D6660268966806F00306012E89
:100940003AD136E0D2F860E00EEA0C0E91F800C021
:1009500046EA8C664EEA060E4EF000461666EAE758
:10096000D2F864E00EEA0C0E91F800C046EA8C66FC
:100970004EEA060E4EF000465666DCE7D2F868E016
:100980000EEA0C0E91F800C046EA8C664EEA060E9E
:100990004EF000469666CEE7D2F86CE00EEA0C0EFA
:1009A00091F800C046EA8C664EEA060E4EF000460C
:1009B000C0E71668F6077AD1CE68012E06D052F845
:1009C000B03F0E78B740BB43136021E052F8B06FE0
:1009D00091F800C007FA0CF73E4316600A680A2A2D
:1009E0000BD30668B769093A02EB420293409F4372
:1009F0008B6893401F43B7610AE007687E69521C09
:100A000002EB420293409E438B6893401E437E61FB
:100A100003684FF0A0473B4EBB4201D0B34201D127
:100A2000394A00E0394A0968102904D0112907D051
:100A300012290AD03BE0D2F808C04FEA0C2C08E09B
:100A4000D2F808C04FEACC1C03E0D2F808C04FEA45
:100A50004C2CBCF1000F2ADBBB420DD0B34201D1BC
:100A600000970CE02A4EDFF8ACC0B34202D1CDF8BB
:100A700000C004E0634501D1009600E000959E6847
:100A800006F00306012E02D11E68F6070AD1009E69
:100A90008EB1B66806F00306012E0CD1009E3668B2
:100AA000F60708D0416C41F020014164012480F830
:100AB000405020468EE6102908D011291AD012295C
:100AC000F5D1916841F480019160F0E7BB42EED12D
:100AD000916841F4000191600F49104A0968B1FB27
:100AE000F2F101EB8101490000E0491E009100296B
:100AF000FBD1DCE7BB42DAD1916841F08071E3E7DA
:100B000000F0FF8300010050000300500007005078
:100B100000040050000500505800002040420F0023
:100B2000704770470068006C704700002DE9F04185
:100B3000044600680168C34FC34DC44E49074FF0D7
:100B4000A04802D54168490705D40168090761D565
:100B5000416809075ED5616CC90603D4616C41F434
:100B6000007161644146884201D0B04202D1D1F89F
:100B7000082300E03A6812F01F0F1BD0884201D012
:100B8000B04202D1D1F8082300E03A6802F01F0217
:100B9000052A0FD0884201D0B04202D1D1F80823F3
:100BA00000E03A6802F01F02092A03D0884201D00F
:100BB000A84201D1C16803E0B04200D02946C9680B
:100BC000C26812F4406F1FD189041DD4016809075F
:100BD0001AD5816849070FD4416821F00C014160A2
:100BE000606C20F480706064606CC0040CD4606C35
:100BF00040F00100606407E0606C40F01000606449
:100C0000A06C40F00100A0642046FFF789FF216836
:100C10000C20086020680168890602D541688906B1
:100C200005D4016849066ED5416849066BD5616CEB
:100C300041F4005161644246904201D0B04202D179
:100C4000D2F8081300E0396811F01F0F1CD0904251
:100C500001D0B04202D1D2F8081300E0396801F0A7
:100C60001F01052910D04146884201D0B04202D16F
:100C7000D1F8083300E03B6803F01F03092B03D0D1
:100C8000884201D0A84201D1C16803E0B04200D03F
:100C90002946C968C36C13F0C00F07D08B0154D428
:100CA000C36813F4406F50D189044ED401684906DB
:100CB0004BD51146884201D0B04202D1D1F8082369
:100CC00000E03A6812F01F0F1BD0884201D0B042FA
:100CD00002D1D1F8082300E03A6802F01F02062A88
:100CE0000FD0884201D0B04202D1D1F8082300E0F1
:100CF0003A6802F01F02072A03D0884201D0A842B6
:100D000002D1C16804E026E0B04200D02946C9689B
:100D100089021AD4816809070FD4416821F0600163
:100D20004160606C20F480506064606CC0050CD43D
:100D3000606C40F00100606407E0606C40F01000FF
:100D40006064A06C40F00100A0642046FFF790FCB6
:100D50002168602008602068016809060CD5406899
:100D6000000609D5606C40F480306064204600F0D5
:100D700095F921688020086020680168C9050DD5B3
:100D80004068C0050AD5606C40F4003060642046BD
:100D9000FFF770FC21684FF48070086020680168DC
:100DA00089050DD5406880050AD5606C40F4802027
:100DB00060642046FFF75FFC21684FF40070086014
:100DC00020680168C90622D54168C9061FD5A16BF4
:100DD00001290ED0404501D0B04201D11C4901E0AB
:100DE000184908398A68D20628D0886800F440403B
:100DF00050B1606C40F480606064A06C40F0020010
:100E0000A0642046FFF78DFE21681020086020684E
:100E10000168490510D5416849050DD5616C41F45B
:100E200080416164A16C41F00801A1644FF48061CC
:100E300001602046FFF71DFCBDE8F081C068C007D7
:100E4000D6E70000080700500004005000010050E1
:100E500000030050F0B54FF0000695B0040037468F
:100E60003546009605D0606CC00648D4606C18B159
:100E700033E0012015B0F0BDA5642565E56484F874
:100E80004050204600F00CF920688068C00024D44F
:100E90002046FFF799FA0646606CC0061DD4E6B9F5
:100EA000606C20F4885040F0020060642068816823
:100EB00021F0405181602068816841F0805181605B
:100EC0006D486E490068B0FBF1F000EB8000400017
:100ED00000E0401E00900028FBD120688168C90016
:100EE00002D5806880000AD5606C20F0020040F0D6
:100EF00010006064A06C40F00100A0640126606CEA
:100F0000C00675D4002E73D12068816849076FD45C
:100F1000616C21F4807141F0020161644FF0A04ED8
:100F2000574B704501D0984201D1564A00E0564ACD
:100F3000DFF858C15649704501D100930EE0984240
:100F400002D1CDF800E009E0884202D1CDF800C01E
:100F500004E0604501D1009100E00095836803F052
:100F60000303012B02D10068C00710D1009840B1E3
:100F7000806800F00300012803D100980068C007D2
:100F800005D19068636820F4403018439060D4E93C
:100F900002201043A26B012A02D04FF4805300E0DC
:100FA0000023E26943EA42331843636A3843012B62
:100FB0000AD1F2B1626C22F0020242F020026264B5
:100FC000A26C42F00102A264E26A012A21D02368E5
:100FD0008B4201D0634518D14FF430774FF4E07164
:100FE000BA4213D04FF480739A420AD139460DE0C9
:100FF00038E0228D274B03EB4242024342F480301B
:10100000E2E78A4201D1194600E011460143206B14
:10101000084321688A6812F00C0F0AD1CA6844F2AA
:1010200002039A43CA60A169626B890341EA4201E3
:1010300008432268D168184B19400143D1602069E8
:1010400001282068016B21F00F0102D1226A521E93
:1010500011430163A564606C20F0020040F00100C0
:10106000606406E0606C20F0020040F010006064F4
:1010700001263046FEE600005800002040420F00E6
:101080000001005000030050000700500005005010
:10109000000400500000FEFF07C0F0FF7047000092
:1010A00000B5006887B0B0F1A04F1BD10E48416970
:1010B00041F0805141614069694600F080500590DF
:1010C0000220009003200190002002904FF09040F9
:1010D00000F012F900220321122000F03DFB122043
:1010E00000F02EFB07B000BD001002402DE9F041DA
:1010F000044600688068400770D494F840000128D6
:101100000CD0012084F840002046FFF78FF903003F
:101110004FF0000605D084F840609EE00220BDE854
:10112000F081606C40F60161884340F48070606437
:1011300020684FF0A0414A4A4A4D884201D090426F
:1011400002D1D1F8087300E02F6817F01F0F464F47
:1011500003D0884201D0B8420BD1D4F844C02CF45B
:10116000801CC4F844C0D0F80CC05FEA8C1C14D4B6
:101170001BE0D4F844C04CF4801CC4F844C0904236
:1011800002D1D1F80CC005E0DFF8DCC00CF10C0C8A
:10119000DCF800C01CF0007F07D0D4F844C02CF469
:1011A000005C4CF4805CC4F844C0D4F844C05FEAEE
:1011B000CC4C06D5D4F848C02CF0060CC4F848C076
:1011C00000E0A66484F840601C2606606069082878
:1011D0002068466803D046F00C0607E03CE026F0A5
:1011E000040646602068466846F008064660A06B24
:1011F000012804D12068466826F010064660206861
:10120000884201D0904202D1D1F8084300E02C6816
:1012100014F01F0F1BD0884201D0904202D1D1F8A8
:10122000084300E02C6804F01F04052C0FD088420E
:1012300001D0904202D1D1F8082300E02A6802F0E0
:101240001F02092A03D0884201D0B84205D1816823
:1012500041F00401816000E0022318465FE70000CE
:1012600000010050080700500004005010B590F82D
:1012700021100024022903D004218163012418E0F5
:1012800001680A6822F00E020A6001680A6822F00A
:1012900001020A6090F84020C36B012101FA02F2BA
:1012A0005A6080F82110002180F82010416B01B1B4
:1012B0008847204610BD000070B5044600F0EAF8EB
:1012C0000546601C02D004480078044400F0E2F8AF
:1012D000401BA042FAD370BD4C00002070470000B4
:1012E000044910B50A68024202D00860FFF7F6FF11
:1012F00010BD0000140401402DE9F84FDFF864B17F
:1013000000234FF0010C4FF0030A4FF00F090BF1CF
:10131000040EA0E00CFA03F6324072D04C68022CA6
:1013200001D0122C0ED1DC0800EB8408D8F8204044
:101330005D07EF0E09FA07F5AC430D69BD40254383
:10134000C8F8205007685D0091F804800AFA05F497
:1013500008F00308A74308FA05F848EA0708C0F8A8
:1013600000804F68012F05D0022F03D0112F01D02C
:10137000122F11D18768D1F80C80A74308FA05F81D
:1013800048EA0708C0F808804768B7430E79C6F3F3
:1013900000169E403E434660C668A6438C68AC403B
:1013A0003443C4604C68E40054D52F4CA56945F023
:1013B0000105A561A46923F0030504F0010400946C
:1013C0002A4C2E19B4689D072F0F09FA07F5AC4374
:1013D000B0F1904F04D0264DA84203D1012512E070
:1013E000002510E0234DA84201D102250BE0224D3B
:1013F000A84201D1032506E0204DA84202D10425D0
:1014000001E027E00525BD402543B560DBF800403D
:101410005D464E689443F60300D514432C60DEF815
:10142000004075464E689443B60300D514432C60C3
:101430000C4D08352C684E689443F60200D51443D1
:101440002C60084D0C352C684E689443B60200D5CC
:1014500014432C605B1C0A6832FA03F47FF45AAF21
:10146000BDE8F88F00040140001002400000014078
:101470000004004800080048000C00480010004824
:101480000069084000D0012070470AB181617047AF
:101490008162704701488068704700004C0000205E
:1014A00090F84120202A24D190F84020012A20D011
:1014B000012280F84020242280F84120026813682D
:1014C00023F0010313600268136823F48053136050
:1014D000026813680B43136001680A6842F0010256
:1014E0000A60202180F84110002180F84010084651
:1014F00070470220704790F84120202A22D190F8AE
:101500004020012A1ED0012280F84020242280F8A9
:1015100041200268136823F0010313600268136816
:1015200023F4706343EA0121116001680A6842F004
:1015300001020A60202180F84110002180F840104B
:10154000084670470220704770B5040004D094F834
:101550004100002510B106E0012070BD84F8405024
:10156000204600F04DF8242084F8410020680168EE
:1015700021F0010101606068216820F0706008615D
:101580002068816821F400418160E0680128A0683A
:1015900007D040F4044021688860E068022803D046
:1015A00006E040F40040F6E721684FF40060486030
:1015B00020684168114A114341602068C16821F4E4
:1015C0000041C160D4E904010843A16940EA012057
:1015D0002168C860D4E907010843216808602068D1
:1015E000016841F0010101606564202084F8410038
:1015F000256384F84250002070BD00000080000286
:1016000000B500680E4987B0884216D1C02000900E
:1016100012200190012002900320039004200490E6
:1016200069460848FFF768FE0748C16941F40011A0
:10163000C161C06900F40010059007B000BD000052
:101640000054004000040048001002400248816835
:1016500002781144816070474C000020074810B5A3
:10166000016841F010010160032000F095F80020AE
:1016700000F006F800F024F8002010BD0020024021
:1016800070B50D4D04464FF47A712878B1FBF0F037
:101690000A490968B1FBF0F001F023F848B9102CB1
:1016A00007D200222146501E00F056F800206C6040
:1016B00070BD012070BD00004C00002058000020CB
:1016C0001E4808B5816941F001018161816901F01D
:1016D00001010091C16941F08051C161C06900F010
:1016E00080500090042000F057F8002211466FF05F
:1016F0000B0000F031F8002211466FF00A0000F0F4
:101700002BF8002211466FF0090000F025F80022A6
:101710001146501F00F020F800221146101F00F063
:101720001BF800221146901E00F016F80022BDE8BA
:1017300008401146501E00F00FB800000010024093
:1017400000F01F02012191404009800000F1E020DB
:10175000C0F8001170470000F0B40E4B1B680C4637
:10176000C3F30223C3F10705042D00D90425191D75
:10177000072901D2002300E0DB1E012606FA05F14D
:10178000491E214099409E40761E16403143F0BCD0
:1017900001F0E2BC0CED00E0064900F00702086829
:1017A0004FF6FF03184040EA0220034A1043086046
:1017B000704700000CED00E00000FA0570B5040071
:1017C0004FF0000604D094F87103002510B106E034
:1017D000012070BD84F87053204600F043F80320C8
:1017E00084F8710301220CE0C6EBC60004EB800014
:1017F00080F8292000F8286F761CC570C560056147
:1018000045616068B042EFD8002010E0C0EBC00135
:1018100004EB810181F8CD5181F8CC0181F8CF51E1
:10182000C1F8D851C1F8DC51401CC1F8E0516168E1
:101830008142EBD82068A0F840202068A0F84050F2
:101840002068A0F844502068A0F8505021684FF458
:101850003F40A1F8400084F8245084F87123002010
:1018600070BD000000B500680F4987B0884218D1EC
:101870004FF4C050009002200190002002900320FD
:1018800003900E20049069464FF09040FFF734FD1E
:101890000648C16941F40001C161C06900F400005B
:1018A000059007B000BD0000005C00400010024041
:1018B0002DE9F84F04460068804DC0036FD5E869F4
:1018C0000026C00008D4E86940F08050E861E8696B
:1018D000012600F08050009079480168C90512D4B3
:1018E0000168804641F480710160FFF7D3FD07462F
:1018F00005E000BFFFF7CEFDC01B642835D8D8F83F
:101900000000C005F6D5286A10F4407053D0A188B5
:1019100001F4407181424ED0286A4FF4803191FA2F
:10192000A1F2B2FA82F29700664A4FF0010817441A
:1019300020F44070C7F8008491FAA1F1B1FA81F166
:1019400002EB81010023C1F800342862C00732D0C5
:10195000FFF7A0FD074641F2883A4FF0020907E081
:10196000FFF798FDC11B514502D90320BDE8F88F50
:1019700099FAA9F1B1FA81F141F040014846B8EB7A
:10198000511F01D129680CE090FAA0F1B1FA81F160
:1019900041F04001B0EB511F02D1296A01E015E08E
:1019A000696A99FAA9F0B0FA80F000F01F0008FA0D
:1019B00000F21142D4D0286A616820F440700843D4
:1019C00028621EB1E86920F08050E8612078C007E5
:1019D00005D0286BA16820F0030008432863207815
:1019E000800705D5286BE16820F440300843286360
:1019F0002078400705D5286B216920F44020084352
:101A000028632078800605D5286BE16920F0100056
:101A1000084328632068800305D56868A16B20F41B
:101A20008000084368602078400605D5286B216A4D
:101A300020F02000084328632078000705D5286B94
:101A4000616920F44010084328632078C00605D55A
:101A5000286BA16920F44000084328632088800592
:101A600005D56868E16A20F40000084368602078C2
:101A7000000605D5E86A616A20F4F8700843E86258
:101A80002088C00505D5E86AA16A20F4785008438B
:101A9000E8622088C00405D5286B216B20F4807093
:101AA000084328632088800405D5286B616B20F4E7
:101AB000007008432863002058E70000001002402F
:101AC00000700040000042422DE9F0470F4605003B
:101AD00069D04A4E306800F00700B84209D2306839
:101AE00020F0070038433060306800F00700B8424B
:101AF00059D12878424C800705D56068A96820F044
:101B0000F000084360602878C0073DD06968012074
:101B100001290DD0022923D05FF0020393FAA3F22A
:101B2000B2FA82F242F02002520904D0226803E0A5
:101B30004FF40033F2E7626A93FAA3F3B3FA83F344
:101B400003F01F03984002422DD0606820F003008C
:101B500008436060FFF79EFC804641F288390CE044
:101B60004FF00073DAE700BFFFF794FCA0EB080129
:101B7000494502D90320BDE8F0876068696800F034
:101B80000C00B0EB810FEFD1306800F00700B842D5
:101B90000BD9306820F0070038433060306800F01F
:101BA0000700B84201D00120E5E72878400705D5B5
:101BB0006068E96820F4E060084360602878000706
:101BC00006D56068296920F4605040EAC100606071
:101BD00000F052F86168F02292FAA2F201F0F001EE
:101BE000B2FA82F2D140074A515CC8400649086007
:101BF0000020FFF745FD0020BDE700000020024067
:101C000000100240F044000858000020014800681D
:101C100070470000580000200848094900684968DA
:101C20004FF4E06292FAA2F201F4E061B2FA82F2B9
:101C3000D140044A515CC840704700005800002061
:101C4000001002400045000808480949006849683A
:101C50004FF4605292FAA2F201F46051B2FA82F2A9
:101C6000D140044A515CC840704700005800002031
:101C70000010024000450008144B10B55A68144883
:101C800002F00C0104291DD008291BD14FF4701457
:101C900094FAA4F402F47011B4FA84F4E1400D4C07
:101CA000DB6A615C0F2494FAA4F403F00F03B4FA26
:101CB00084F4E340074C1034D203E35C03D5B0FB5B
:101CC000F3F0484310BD0448484310BD00100240E3
:101CD00000127A00D044000800093D002DE9F84FB9
:101CE000040071D02078FB4DC0074FF0010625D0CD
:101CF00068687704C0F38100012807D06868C0F3E2
:101D0000810002281BD16868C00318D597FAA7F094
:101D1000B0FA80F040F02000400901D0286800E0CF
:101D2000686A97FAA7F1B1FA81F101F01F0106FA8A
:101D300001F1084265D060680028D2D061E0606897
:101D4000B0F5803F0BD010B1B0F5A02F17D02868A8
:101D500020F480302860286820F4802002E0286881
:101D600040F480302860E86AA16820F00F00084342
:101D7000E862606820B3FFF78DFB80460AE02868C0
:101D800040F480202860EAE7FFF784FBA0EB08001E
:101D9000642872D897FAA7F0B0FA80F040F02000DB
:101DA000400901D0286800E0686A97FAA7F1B1FA03
:101DB00081F101F01F0106FA01F10842E4D020E0B0
:101DC000FFF768FB804607E0C7E000BFFFF762FB54
:101DD000A0EB08006428DCD897FAA7F0B0FA80F0EE
:101DE00040F02000400901D0286800E0686A97FAB6
:101DF000A7F1B1FA81F101F01F0106FA01F10842E1
:101E0000E4D12078DFF8D08280074FF0000A4FF04D
:101E1000020759D568684FF0F80B10F00C0F07D087
:101E20006868C0F3810002281BD16868C00318D419
:101E300097FAA7F0B0FA80F040F02000400901D0F6
:101E4000286800E0686A97FAA7F1B1FA81F101F019
:101E50001F0106FA01F108422BD0206901287CD12C
:101E600027E0206988B396FAA6F0B0FA80F048F827
:101E70002060FFF70FFB814606E055E1FFF70AFB04
:101E8000A0EB0900022884D897FAA7F0B0FA80F0F6
:101E900040F02000400901D0286800E0686A97FA05
:101EA000A7F1B1FA81F101F01F0106FA01F1084230
:101EB000E4D028689BFAABF26169B2FA82F220F0B2
:101EC000F80091400843286025E0FFE796FAA6F164
:101ED000B1FA81F148F821A0FFF7DCFA814605E06C
:101EE000FFF7D8FAA0EB09000228CCD897FAA7F0A0
:101EF000B0FA80F040F02000400901D0286800E0EE
:101F0000686A97FAA7F1B1FA81F101F01F0106FAA8
:101F100001F10842E4D1207800076AD5A069A0B396
:101F200096FAA6F0B0FA80F008EB8000C0F8806462
:101F3000FFF7B0FA814605E0FFF7ACFAA0EB090025
:101F40000228A0D897FAA7F0B0FA80F040F060001D
:101F5000B6EB501F02D128680CE077E197FAA7F0A2
:101F6000B0FA80F040F06000B7EB501F01D1286A52
:101F700000E0686A97FAA7F1B1FA81F101F01F0158
:101F800006FA01F21042D7D033E0FFE796FAA6F046
:101F9000B0FA80F008EB8000C0F880A4FFF77AFA6E
:101FA000814605E0FFF776FAA0EB090002289CD8ED
:101FB00097FAA7F0B0FA80F040F06000B6EB501F3F
:101FC00001D128680BE097FAA7F0B0FA80F040F052
:101FD0006000B7EB501F01D1286A00E0686A97FAE9
:101FE000A7F1B1FA81F101F01F0106FA01F21042E6
:101FF000D8D12078400774D5E8694FF00009C000B7
:1020000009D4E86940F08050E861E8694FF00109BF
:1020100000F08050009031480168C90512D4016871
:1020200041F480710160FFF735FA834606E000BF96
:10203000FFF730FAA0EB0B00642875D8274800683A
:10204000C005F5D5E06801280AD008B1052811D0EF
:10205000286A20F001002862286A20F0040002E0CB
:10206000286A40F001002862E068C8B3FFF712FA5E
:1020700083460DE0286A40F004002862F0E700BFC4
:10208000FFF708FAA0EB0B0141F2883081424BD8F0
:1020900097FAA7F0B0FA80F040F04000B6EB501F7E
:1020A00001D128680BE097FAA7F0B0FA80F040F071
:1020B0004000B7EB501F01D1286A00E0686A97FA28
:1020C000A7F1B1FA81F101F01F0106FA01F2104205
:1020D000D6D035E0001002400000424200700040BF
:1020E00000E034E0FFF7D6F9834607E0FFF7D2F9C6
:1020F000A0EB0B0141F28830814215D897FAA7F086
:10210000B0FA80F040F04000B6EB501F01D12868D3
:102110000CE097FAA7F0B0FA80F040F04000B7EB7F
:10212000501F02D1286A01E083E0686A97FAA7F19C
:10213000B1FA81F101F01F0106FA01F21042D5D186
:10214000B9F1000F03D0E86920F08050E861E06940
:1021500080B36968C1F38101022977D04FF08071A3
:102160004F00022809D091FAA1F0B0FA80F048F8A7
:1021700020A0FFF78FF904465EE050468A4691FAA8
:10218000A1F1B1FA81F1C14648F82100FFF782F9C7
:10219000804605E0FFF77EF9A0EB0800022848D84A
:1021A00097FAA7F0B0FA80F040F02000400902D082
:1021B000286801E056E0686A97FAA7F1B1FA81F160
:1021C00001F01F0106FA01F10842E3D1D4E9081039
:1021D0000843696821F47411084368609AFAAAF008
:1021E000B0FA80F049F82060FFF754F9044604E0A3
:1021F000FFF750F9001B02281BD897FAA7F0B0FA96
:1022000080F040F02000400901D0286800E0686AB2
:1022100097FAA7F1B1FA81F101F01F0106FA01F175
:102220000842E5D01EE000BFFFF734F9001B02288A
:1022300002D90320BDE8F88F97FAA7F0B0FA80F032
:1022400040F02000400902D0286801E00CE0686AF4
:1022500097FAA7F1B1FA81F101F01F0106FA01F135
:102260000842E1D10020E5E70120E3E710B500686E
:102270000B4641680D480140080CD870C1F3042496
:102280005C7001F03F049C70C1F34231197052B987
:1022900000F073FFD870587800F06FFF587098788E
:1022A00000F06BFF9870002010BD00003FFFFF00A2
:1022B00010B50B460168896A596001680969C1F364
:1022C0000E019960006801680E480140C1F30540A5
:1022D0001870C1F306245C7001F07F049C704024E8
:1022E00004EA1141D97052B900F047FF18705878CC
:1022F00000F043FF5870987800F03FFF987000207E
:1023000010BD00007F7F7F0070B5040002D0607FA9
:1023100010B106E0012070BD00202077204600F0BB
:1023200049F8022060772168CA204862216853205A
:102330004862204600F036FFFF25042618BB2068BF
:1023400081681B4A11408160216888686268104377
:10235000D4E904231A43104388602168E0680861C7
:1023600020680169228941EA024101612068C1684F
:1023700021F08001C16020688068800607D4204673
:1023800000F008F918B1206845626677C2E7206856
:10239000016C21F4802101642068016CA269114361
:1023A00001642068456201206077002070BD000054
:1023B000BFFF8FFF0068074988420AD10120C1038F
:1023C00091FAA1F1044AB1FA81F102EB8101C1F85D
:1023D0000004704700280040000042422DE9F04709
:1023E0000446007F0B4601281FD04FF0010984F8F6
:1023F0001C9002206077DAB19878D97840EA0145DC
:1024000058781978000240EA413005432168CA2013
:102410004862216853204862204600F0C3FE00262F
:10242000FF274FF0040860BB1AE00220BDE8F087E8
:102430005878C10603D500F0EF000A305870D878FC
:1024400000F0A4FE0204587800F0A0FE42EA002248
:10245000987800F09BFE0243187842EA4035D5E7B1
:102460000F480540206845602068C16821F0800160
:10247000C1602068806880060AD4204600F08AF88F
:1024800030B12068476284F81D8026770120CDE7AF
:102490002068476284F81D9026770020C6E7000078
:1024A0003FFFFF002DE9F0470446007F0D4601285D
:1024B00011D04FF0010A84F81CA002206077206838
:1024C000002680684FEA406042B100281ADA287876
:1024D00000F053FE17E00220BDE8F087002800DB83
:1024E000EE70287800F052FE0204687800F04EFE8C
:1024F00042EA0022A87800F049FE0243E87842EA66
:1025000000470AE0EE70A878297840EA0147687829
:10251000E978000240EA014007432168CA20486286
:10252000216853204862204600F03CFE4FF0FF082F
:102530004FF00409E0B9164807402068076020689A
:10254000816821F480218160D5E903010843216875
:102550008A68104388602068C16821F08001C160EA
:102560002068806880060BD4204600F013F838B14C
:102570002168C1F8248084F81D9026770120ABE7FC
:102580002168C1F8248084F81DA026770020A3E7E5
:102590007F7F7F0070B504460068C16821F0A0010C
:1025A000C160FEF777FF05464FF47A7607E000BF7B
:1025B000FEF770FF401BB04201D9032070BD2068B8
:1025C000C0688006F4D5002070BD2DE9F0410400FC
:1025D00005D00025A56294F85D0018B107E0012040
:1025E000BDE8F08184F85C50204600F049F80223F1
:1025F00084F85D302068016821F040010160E068E6
:102600004FF4E066B04201D9002101E04FF480515F
:10261000B0F5706F02D0B04200D0A562276B0122E6
:1026200027B9B04201D9236300E02263D4E9010352
:102630001843D4E9043633431843238B03F400735F
:102640001843E3691843236A1843A36A18432368AD
:102650001860636B606AA66918430427E36807EA99
:102660001646334318430843216848602068C1690F
:1026700021F40061C161256684F85D200020AFE788
:1026800000B500680E4987B0884217D10D488169AE
:1026900041F4805181618069694600F48050059061
:1026A000E02000900220019000200290032003907F
:1026B000052004904FF09040FEF71EFE07B000BDCD
:1026C00000300140001002404FF0E021042808696A
:1026D00003D020F004000861704740F00400FAE7DE
:1026E000704710B5401EB0F1807F01D3012010BDAE
:1026F0004FF0E02460610F21601700F02DFD0020F5
:10270000A06107202061002010BD10B5FFF7E8FF91
:1027100010BD70477047704730B590F83C20012AD3
:102720001FD0012280F83C200268536894680E4D47
:10273000AA4202D00D4DAA4203D123F470054B6882
:102740002B4323F070050B6889682B4324F0800429
:102750002143536002689160002180F83C100846D4
:1027600030BD022030BD0000002C0140003401408B
:1027700010B5040003D094F83D0010B107E001202B
:1027800010BD002084F83C00204600F00DF8022027
:1027900084F83D00211D206800F0D8FD012084F858
:1027A0003D00002010BD000008B50068B0F1804F6A
:1027B00012D10A48C16941F00101C161C06900221A
:1027C00000F00100009002211C20FEF7C5FFBDE8CB
:1027D00008401C20FEF7B4BF08BD000000100240F6
:1027E0000168CA6842F00102CA600068016841F0ED
:1027F000010101600020704770B5044690F83C006C
:10280000012817D0012584F83C50022084F83D00AF
:1028100022689068364E304020F47F40906008680F
:10282000502839D00DDC20285BD005DC98B3102867
:1028300043D153E0022070BD302855D040283CD110
:1028400041E0602830D070280CD0B0F5805F03D014
:10285000B0F5005F31D112E020688168244A7032FF
:10286000114016E0CB68D1E90121206800F0C6FDD7
:1028700021688868304040F0770088601DE0CB68B0
:10288000D1E90121206800F0B9FD2068816841F498
:102890008041816011E01EE0CA684968206800F04C
:1028A000BFFD5021206806E0CA684968206800F032
:1028B000C8FD6021206800F0ABFD84F83D50002089
:1028C00084F83C0070BDCA684968206800F0A8FD23
:1028D00040212068EFE700212068ECE71021206804
:1028E000E9E720212068E6E730212068E3E70000DF
:1028F00088FFFEFF704770B50446006801694FF01D
:102900000005C943890715D4C168C943890711D493
:10291000E91E016101202077206880698007204638
:1029200002D0FFF7E7FF04E000F0A7F8204600F030
:10293000A5F8257720680169C943490717D4C168FC
:10294000C943490713D46FF00401016102202077C5
:102950002068806910F4407F204602D0FFF7CAFF4C
:1029600004E000F08AF8204600F088F82577206817
:102970000169C943090716D4C168C943090712D4BC
:102980006FF008010161042020772068C06980078A
:10299000204602D0FFF7AEFF04E000F06EF82046BC
:1029A00000F06CF8257720680169C943C90617D47F
:1029B000C168C943C90613D46FF010010161082032
:1029C00020772068C06910F4407F204602D0FFF7CE
:1029D00091FF04E000F051F8204600F04FF8257711
:1029E00020680169C943C90708D1C168C943C9073B
:1029F00004D1891E0161204600F041F82068016978
:102A0000C943090609D4C168C943090605D46FF052
:102A1000800101612046FFF77DFE20680169C943FE
:102A2000C90509D4C168C943090605D46FF480718A
:102A300001612046FFF76DFE20680169C943490620
:102A400009D4C168C943490605D46FF0400101614A
:102A5000204600F015F820680169C94389060BD4A7
:102A6000C168C943890607D46FF02001016120467F
:102A7000BDE87040FFF74FBE70BD704770477047AC
:102A8000704770477047000070B503680446D86906
:102A9000196810F00F0508D1820606D58A0604D5FC
:102AA0002046BDE8704000F095BD9A68002D66D0C4
:102AB00002F0010501F490762E4360D0C60707D0DE
:102AC000CE0505D501261E62E36E43F00103E366E1
:102AD000830708D5D30706D0266802233362E36E46
:102AE00043F00403E366430708D5D20706D0236802
:102AF00004221A62E26E42F00202E26602070AD57E
:102B000001F020022A4306D0236808221A62E26EEE
:102B100042F00802E266E26E002A29D0800604D55F
:102B2000880602D5204600F055FDE06E000703D46C
:102B30002068806840061CD5204600F030FD2068E3
:102B40008168490611D5816821F040018160606E7D
:102B500058B11C494163606EFEF788FB002807D01E
:102B6000606E416BBDE8704008472046FFF78AFF62
:102B700070BD2046FFF786FF0020E06670BDC502ED
:102B80000ED552020CD54FF480101862202084F824
:102B9000690084F86A002046BDE87040FFF771BF05
:102BA000020606D50A0604D52046BDE8704000F0AE
:102BB00037BE4006E2D54806E0D52046BDE8704065
:102BC00000F0FBBC8B35000810B5040003D094F86E
:102BD000690010B107E0012010BD002084F86800F2
:102BE000204600F027F8242084F869002068016856
:102BF00021F001010160204600F028FD0128EBD002
:102C0000606A10B1204600F02EFC2068416821F473
:102C1000904141602068816821F02A01816020682C
:102C2000016841F0010101602046BDE8104000F05C
:102C30007EBC000000B50068124987B088421FD1F1
:102C40001148C16941F40031C161C069694600F4AD
:102C5000003005900C20009002200190002002908E
:102C600003200390072004904FF09040FEF744FBB0
:102C7000002201212620FEF76FFD2620FEF760FDD1
:102C800007B000BD004400400010024090F86A30D8
:102C9000202B36D199B192B190F86830012B30D009
:102CA000012380F868304165A0F85820A0F85A2028
:102CB0008168FF22B1F5805F03D039B10BE00120BC
:102CC00070470169D1B940F2FF1102E00169A9B171
:102CD0007F21A0F85C100021C166222280F86A20C2
:102CE00080F8681001688A6842F001028A60006812
:102CF000016841F49071016000207047A0F85C20E9
:102D0000E9E70220704770472DE9F843044690F840
:102D100069001F4616460D4620284DD1CDB1C6B1DB
:102D200094F86800012847D0012084F868004FF02B
:102D30000008C4F86C80212084F869005034FEF744
:102D4000A9FB24F8026B814624F852694FF480569F
:102D500018E00120BDE8F883B4F85200401EA4F842
:102D600052004B46002280212046009700F08AFD49
:102D7000A0B9A068B04201D1206988B115F8010B53
:102D800021680885B4F852000028E5D14B4600229E
:102D900040212046009700F075FD30B10320D9E7AF
:102DA00035F8020BC0F30800EAE7202084F8690038
:102DB00084F868800020CDE70220CBE77047FEE76B
:102DC000F0B589B00C460F49DDE9106591F800E0D7
:102DD0000021DDE90EC705910691CDE9003C079180
:102DE00008911346BEF1000F02972246014601D01A
:102DF000012000E00020CDE9036501F009F809B0E9
:102E0000F0BD00000000002030B5194889B04FF037
:102E1000A0410024C0E900140461C461012544629A
:102E2000C0E90B5410210562C0E902140421446377
:102E3000C0E905148463FEF70DF800B1FEE706A9AA
:102E40000B480694FDF718FC00B1FEE70220CDE91F
:102E500000050720CDE9020404946946044805945E
:102E6000FDF794FC002800D0FEE709B030BD00005B
:102E700034010020F0B54B4887B0416941F400119E
:102E80004161416901F400110591416941F400215A
:102E90004161416901F400210591416941F48001DA
:102EA0004161416901F480010591416941F40031BA
:102EB0004161416901F400310591416941F480218A
:102EC0004161416901F480210591416941F480111A
:102ED00041614069344E00F480104FF6087405904B
:102EE000002221463046FEF7D0FA304F0022F02172
:102EF0003846FEF7CAFA0125CDE9004500240294C0
:102F0000694630460394FEF7F7F9CDE90054694667
:102F10004FF090400294FEF7EFF9254E1720CDE9CF
:102F200000060220029069462248FEF7E5F9680291
:102F3000CDE90006694602941F48FEF7DDF9F0204E
:102F40000090CDE90154694638460394FEF7D4F960
:102F5000002201210620FEF7FFFB0620FEF7F0FB12
:102F6000002201210720FEF7F7FB0720FEF7E8FB10
:102F7000002201210820FEF7EFFB0820FEF7E0FB0E
:102F8000002201210A20FEF7E7FB0A20FEF7D8FB0A
:102F9000002201211720FEF7DFFB1720FEF7D0FBF0
:102FA00007B0F0BD0010024000100048000C0048BF
:102FB000000011100004004800080048114810B536
:102FC0000F4901601049416000210122C0E902124D
:102FD000016141618161C1610162FEF7B5FA00B131
:102FE000FEE700210748FEF75BFA00B1FEE700218B
:102FF0000448FEF780FA002800D0FEE710BD00006C
:1030000000540040880100200E09002010B51B4824
:1030100086B019490024C0E900142721816040F2DC
:10302000E731C0E9031444618461FFF76DF900B131
:10303000FEE78DF800408DF801408DF802400394C2
:10304000012269460D480494FFF72CFA00B1FEE70F
:1030500001208DF814008DF815008DF81600024639
:103060008DF8174005A90548FFF7B8F9002800D0EA
:10307000FEE706B010BD000000280040D40100208B
:10308000104810B50E4901604FF482714160002173
:103090004FF44072C0E902124FF400720161C0E9BE
:1030A00005120822C0E9072107234162C0E90A137B
:1030B000C0E90C12FFF789FA002800D0FEE710BD26
:1030C00000300140F401002010B5134888B04FF0E3
:1030D0008041016040F2CF210024C0E9011442F296
:1030E0001071C0E903148461FFF742FB00B1FEE7F1
:1030F0004FF48050039003A90748FFF77DFB00B110
:10310000FEE70094694604480294FFF705FB002897
:1031100000D0FEE708B010BD580200200C4810B5E2
:103120000A4901604FF4E1314160002181600C22C5
:10313000C160C0E904128161C16101624162FFF7AF
:1031400043FD002800D0FEE710BD00000044004011
:1031500098020020FEE770470907090E002806DAEA
:1031600000F00F0000F1E02080F8141D704700F11E
:10317000E02080F8001470477047010901EB8101DD
:1031800000F00F0000EB4100C0B27047002102E0E8
:103190000A38C0B2491C0A28FAD2090740EA11606D
:1031A0007047000070B504460068C168490614D431
:1031B0004FF0FF31C160FEF76DF905464FF47A76A6
:1031C00007E000BFFEF766F9401BB04201D90320BB
:1031D00070BD2068C0684006F4D5002070BD7047FF
:1031E00010B5FEF733FABDE81040FFF78EBA0000C5
:1031F00030B59FB00B2000904FF4A0200024CDE903
:10320000010401200225CDE906051021CDE90401C4
:10321000000408904FF4E01009906846FEF75EFD48
:1032200000B1FEE70F20CDE919054FF48060CDE92C
:103230001B40022119A81D94FEF746FC00B1FEE7D1
:1032400010480A904FF48070139040000B900D943A
:10325000119418940AA8FEF72BFB00B1FEE7FEF7C5
:10326000D5FC4FF47A71B0FBF1F0FFF73AFA042085
:10327000FFF72AFA00221146501EFEF76DFA1FB022
:1032800030BD0000A20003001448016841F4700141
:1032900001601348016841F0010101604168114A71
:1032A000114041600168104A11400160016821F439
:1032B00080210160416821F4FE014160C16A21F072
:1032C0000F01C162016B094A114001630021816055
:1032D0000249C003803908607047000088ED00E0B3
:1032E000001002400CC07FF8FFFFF6FECCFC00FF90
:1032F0003EB51048FFF7FFFA0F4C206810B1FDF7FC
:10330000C6F820600D480E490E4A03680E481BB1EE
:10331000012B0BD0032B08D1096802911168019190
:10332000016900910FC800F0C1FE3EBDBDE83E40FE
:1033300000F08ABE580200201C0000201800002067
:103340002000002028000020B00600202DE9F043D6
:103350000268234B234D244E244C4FF08049984261
:1033600007D0484505D0A84203D0B04201D0A042C2
:1033700003D122F070074A683A431D4FDFF874C04A
:10338000DFF8748098420DD048450BD0A84209D090
:10339000B04207D0A04205D0B84203D0604501D06A
:1033A000404503D122F44075CA682A434D6922F092
:1033B00080022A4302608A68C2620A688262984276
:1033C00007D0A04205D0B84203D0604501D04045A7
:1033D00001D10969016301214161BDE8F083000069
:1033E000002C01400004004000080040003401406F
:1033F00000400140004401400048014010B584688D
:1034000042EA032224F47F440A432243826010BD2F
:10341000826822F070020A4342F00701816070471F
:1034200010B5036A046A24F001040462846924F07C
:10343000F00444EA021423F00A020A43846102629F
:1034400010BD10B5036A23F0100303628369046A98
:1034500023F4704343EA023224F0A00343EA01114B
:103460008261016210BD90F82410C90706D001687E
:103470004A68836A22F400321A434A6090F82410A2
:10348000890706D501684A68C36A22F480321A4364
:103490004A6090F82410490706D501684A68036B12
:1034A00022F480221A434A6090F82410090706D5B6
:1034B00001684A68436B22F400421A434A6090F85C
:1034C0002410C90606D501688A68836B22F48052ED
:1034D0001A438A6090F82410890606D501688A6824
:1034E000C36B22F400521A438A6090F824104906F4
:1034F00011D501684A68036C22F480121A434A60AD
:10350000016CB1F5801F06D101684A68436C22F452
:10351000C0021A434A6090F82410090606D50168D3
:103520004A68806C22F4002202434A607047F8B572
:1035300000260446C666FDF7ADFF05462068006814
:103540006FF07E47000708D52B4600224FF400118C
:103550002046009700F096F960B92068006840079F
:103560000AD52B4600224FF480012046009700F038
:1035700089F908B10320F8BD202084F8690084F897
:103580006A0084F868600020F8BD10B5406A002128
:10359000A0F85A10A0F85210FFF774FA10BD016895
:1035A0000A6822F490720A6001688A6822F00102B7
:1035B0008A60202180F86A10704710B501680A6897
:1035C00022F040020A60202180F86910FFF7F6FB24
:1035D000002010BD10B5B0F85C2090F86A3001688A
:1035E000222B05D0886940F008008861022010BDB8
:1035F000898C8368B3F5805F01D103696BB1114099
:10360000426D531C43651170B0F85A10491E0904ED
:10361000090CA0F85A1007D015E0436D114019802D
:10362000416D891C4165EFE701680A6822F49072D8
:103630000A6001688A6822F001028A60202180F80D
:103640006A10FFF760FB002010BD00002DE9F0417B
:10365000044610202369A268E6691A4363690021C1
:1036600033431A4323680D461E6849F20C67BE4374
:1036700016431E6022685368E66823F440533343C0
:103680005360236AA2691A4323689E6826F4306651
:1036900016439E605A4F22685A4B0603BA420CD119
:1036A0001B6B13F0030306D0012B4DD0022B4DD022
:1036B000032B4CD146E0012049E0534FBA420CD1D4
:1036C0001B6B13F440333BD0B3423DD0B3F5003F06
:1036D0003CD0B3F5403F3AD134E04C4FBA420DD123
:1036E0001B6B13F440232BD0B3F5802F2CD0B3F5F4
:1036F000002F2BD0B3F5402F29D123E0444FBA42FD
:103700000DD11B6B13F440131AD0B3F5801F1BD0DF
:10371000B3F5001F1AD0B3F5401F18D112E03D4F8A
:10372000BA4214D11B6B13F4400309D0B3F5800FD8
:103730000AD0B3F5000F09D0B3F5400F07D101E06F
:10374000002004E0022002E0042000E00820E769F5
:103750004FF400439F4226D109281DD2DFE800F034
:103760000508121C151C1C1C1800FEF755FA01E078
:10377000FEF76AFA4100606801EB5001B1FBF0F01E
:1037800081B20AE024496068F6E7FEF775FAF1E7CE
:10379000606806EB5001F1E7012521F00F00C1F34D
:1037A000420108431CE0092825D2DFE800F00508A3
:1037B0000B24102424241C00FEF72EFA09E0FEF747
:1037C00043FA06E01549606801EB50010EE0FEF790
:1037D00053FA0146606801EB5001B1FBF0F080B292
:1037E0002168C86008E0606803EB5001B1FBF0F0AD
:1037F00080B2D06000E001252846BDE8F0810000DD
:1038000000380140001002400044004000480040E1
:10381000004C0040005000400024F40000127A00E8
:1038200090F86910212901D002207047B0F8521099
:1038300021B18168B1F5805F0BD00CE001680A68A6
:1038400022F080020A600068016841F040010160D6
:103850000CE0016961B1C16C4A1CC264026809785C
:10386000A2F8281030F8521F491E0180002070472E
:10387000C16C02680988C1F308011185C16C891CFB
:10388000C164EFE72DE9F041984617460E4604461D
:10389000069D1DE0681C1BD02DB1FDF7FBFDA0EBC4
:1038A0000800A84214D92068016821F4D071016091
:1038B0002068816821F001018160202084F869007E
:1038C00084F86A00002084F868000320BDE8F081D5
:1038D0002068C06936EA000004D00020B842D9D080
:1038E0000020F3E70120F9E710B51A48FFF7CCF8FC
:1038F00019481A4A0021047819480D2C05D013687C
:10390000C4545B1C1360C15418E0116002782A2A69
:1039100014D142782A2A11D182782A2A0ED1C2786B
:103920002A2A0BD102792A2A08D1427932B90D4AC2
:10393000012314684CB111600B480360BDE81040CE
:10394000012205490348FFF7A1B920211360417006
:10395000F2E7000098020020140000203800002048
:103960006C000020180000201C000020FEE7000072
:103970000FB4084B10B504A902AA039800F01CF874
:10398000044602A9002000F0C1F8204610BC5DF8F2
:1039900014FB00000D3B000802E008C8121F08C11C
:1039A000002AFAD170477047002001E001C1121FC0
:1039B000002AFBD1704700002DE9FF4F89B09B46DC
:1039C0000446002506E025280BD05A460B9990475F
:1039D000641C6D1C20780028F5D10DB02846BDE888
:1039E000F08F0027B8460122474900E0074314F84A
:1039F000013F203B02FA03F00842F7D120782E283D
:103A000019D114F8010F47F004072A280ED06FF0DF
:103A10002F022078A0F1300109290CD808EB880189
:103A200002EB410100EB0108641CF2E70A98641CF8
:103A300050F8048B0A9020780028CED0642808D053
:103A4000692806D075281ED05A460B9990476D1CE0
:103A500058E00A994FF00A0901C90A91002802DAD0
:103A600040422D2102E0390504D52B218DF820108C
:103A7000012103E0F90704D02021F7E78A4608AEC8
:103A80000DE00021FAE70A994FF00A0901C90A91ED
:103A9000F7E74946FCF7EAFB303106F8011D00283C
:103AA000F7D1ADEB060000F12009780701D44FF003
:103AB0000108C84502DDA8EB090000E000208046AF
:103AC000002706E008A85A46C05D0B9990476D1C78
:103AD0007F1C5745F6DB04E030205A460B9990478F
:103AE0006D1CB8F10001A8F10108F5DC05E016F83D
:103AF000010B5A460B9990476D1CB9F10001A9F1D1
:103B00000109F4DC641C65E7092801000A68531CFC
:103B10000B6010707047000030B54B4C85B00D46FF
:103B2000012903D9A17841F00801A17000F14003F7
:103B3000024665714021002000F07CFA607828B1CF
:103B4000012D03D1A07840F00400A07000F0AAF885
:103B5000032003900120019021783C480029E2884D
:103B60000188638941EA0201228942EA030241EAAB
:103B70000201428841EA0201828841EA020101D041
:103B8000C08808E0C2881143028911434289114369
:103B90008289C0891143014300916946E068FDF7BD
:103BA000ABFB3220FDF788FB0022E188E068FDF7DF
:103BB0006CFC00226189E068FDF767FC2189FF2920
:103BC00003D00022E068FDF760FCA078C10615D4A0
:103BD000032000F02BFC0520FDF76EFB032000F016
:103BE00025FC0520FDF768FB032000F01FFC0120E9
:103BF000FDF762FB022000F019FC13E040F020000A
:103C000000F02FF80520FDF757FBA07840F02000CA
:103C100000F027F80120FDF74FFBA07840F02000CE
:103C200000F01FF8A07840F0200000F01AF80420FF
:103C3000E07000F02BF800F00BF802202071062055
:103C400000F00FF805B030BD000000205C0000203F
:103C500010B5012000F005F8BDE810400220FDF786
:103C60002BBB002100F0B0B970B50D4600F0070085
:103C7000402141EAC000FFF7F4FF00240121285D44
:103C800000F0A2F9641C082CF8DB70BD0449C87868
:103C900040F00400C87040F00800FFF7E2BF0000E9
:103CA00000000020234808B5C1682348B1F1904FB7
:103CB0000BD0224A914210D1416941F480214161E7
:103CC000406900F48020009008BD416941F4003152
:103CD0004161406900F40030F5E7194A914207D18B
:103CE000416941F400214161406900F40020EAE7A4
:103CF000144A914207D1416941F480114161406900
:103D000000F48010DFE7104A914207D1416941F485
:103D100000114161406900F40010D4E70B4A914260
:103D2000D2D1416941F480014161406900F48000D1
:103D3000C9E7000000000020001002400004004815
:103D400000080048000C004800100048001400481B
:103D50002C4810B5C26814300B2A21D008DC2A4840
:103D6000022A0CD03C21052A0CD0082A3BD110E0B5
:103D70000E2A1ED0112A25D0142A34D12BE0017826
:103D800018220FE04278521CB2FBF1F301FB132121
:103D900016E08278521CB2FBF1F301FB132118E00C
:103DA00001780722491CB1FBF2F302FB13110170E9
:103DB00019E041780C22491CB1FBF2F302FB13110C
:103DC000417010E081781F22491CB1FBF2F302FB25
:103DD0001311817007E0C1786422491CB1FBF2F332
:103DE00002FB1311C17008490022A1F2DC40FEF76A
:103DF00059FB04490022BDE8104014310348FEF786
:103E0000EDBA000014000020B0060020D40100200C
:103E10002DE9F05F0AAC94E8E05F0F4CE28023816B
:103E20006581E1600D490E804F80A1F80480A1F802
:103E30000690A1F808A0A1F80AB0A1F80CC0A1F85A
:103E40000EE008B1002000E01020A070BDE8F05F97
:103E500002211020FFF760BE000000205C0000205F
:103E60001FB5FDF7FBFBFFF7C3F9FFF703F8FFF7FB
:103E7000A5F8FFF705F93648344900240160082108
:103E800041600221C0E90214846104620161FDF70E
:103E900095FC00B1FEE7FFF7B9F8FFF73FF9FFF730
:103EA00013F9FEF7B1FF4FF480435A105110481038
:103EB0008DE80F00274D43108210C1102846FEF7F1
:103EC0007FFF04211420FFF727FE23491220002240
:103ED00008702D2048708C702049062008700B2037
:103EE0008870052048701320C8701B49A1F2DC407F
:103EF000FEF7D8FA002219491948FEF76FFA184858
:103F00008430FEF76DFC15491148012214397038D0
:103F1000FEF7BCFE1248A038FDF7E8F80122102198
:103F20002846FDF7B2FA012220212846FDF7ADFA16
:103F3000012240212846FDF7A8FA012280212846C7
:103F4000FDF7A3FA00F0AEF9FEE70000005C0040C8
:103F500008030020000C0048B006002028000020C4
:103F6000D401002070B500280FD00446FCF744F9B6
:103F70000546002606E000BF14F8010B012100F001
:103F800023F8761C6D1EF7D2304670BD10B50D4C6F
:103F900000226189E068FDF778FA0120FDF78CF9CD
:103FA00001226189E068FDF770FA0120FDF784F9CC
:103FB00000226189E068FDF768FABDE81040012041
:103FC000FDF77AB90000002070B50F4C05460A468F
:103FD000E188E068FDF759FA2189FF2903D0002222
:103FE000E068FDF752FAA078C00604D52846BDE87F
:103FF000704000F035BA280900F018FA2846BDE8EC
:10400000704000F013BA000000000020042900D323
:104010000321074A5279914201D3521ED1B2044A78
:104020001032515C0844C0B240F08000FFF719BE66
:104030000000002010B5034C20706170A270E37086
:1040400010BD00001000002010B500210420FFF773
:10405000DDFF1448FFF786FF00210820FFF7D6FF99
:10406000032000F0DDF900210920FFF7CFFF0EA0AB
:10407000FFF778FF00210B20FFF7C8FF022000F0B8
:10408000CFF900210C20FFF7C1FF012000F0C8F993
:1040900000210D20FFF7BAFFBDE81040002000F01E
:1040A000BFB90000D0000020430000000FB4F0B5FD
:1040B00071A02DED028B8DB01A9DFFF753FF0022EA
:1040C00014A96E48FEF7F4F8002219A96B48FEF710
:1040D000CDF89DF850000C2804D40C388DF8500011
:1040E00067A100E067A10CA8FCF78DF866A0008826
:1040F000ADF810009DF8500000F0CCF9014604A87E
:10410000FCF76EF861A104A8FCF76AF89DF851006D
:1041100000F0C0F9014604A8FCF762F85BA104A80E
:10412000FCF75EF89DF8520000F0B4F9014604A8CF
:10413000FCF756F854A104A8FCF752F89FED548BF5
:104140002024554E092D11DA9DF852003169401A8C
:1041500000D54042FCF760F853EC182BFCF76EF8E2
:1041600004D204A844559DF8520030610021032078
:10417000FFF74CFF04A8FFF7F5FE0CA8FFF7F2FECF
:104180009DF8662045A107A8FFF7F2FB0DF1260078
:104190009DF8672041A10746FFF7EAFB3AA0008897
:1041A000ADF800009DF8640000F016F9014668467D
:1041B000FCF716F834A16846FCF712F89DF8650084
:1041C00000F0D0F801466846FCF70AF82EA16846D0
:1041D000FCF706F807A96846FCF702F830A1684624
:1041E000FBF7FEFF39466846FBF7FAFF26A1684653
:1041F000FBF7F6FF01210220FFF708FF082D31DD54
:104200009DF852003169401A00D54042FCF704F88D
:1042100053EC182BFCF712F824D2E81705EB50707A
:1042200020F00700281A012806D0032807D0042808
:104230000CD0062813D10CE08DF80A400FE08DF861
:1042400003408DF802408DF8014008E08DF80F40E2
:1042500005E08DF805408DF806408DF807409DF883
:10426000520030616846FFF77DFE0DB0BDEC028B59
:10427000F0BC5DF814FB000000000000D401002039
:10428000504D0000414D0000200000003A000000A9
:10429000000000000000D03F140000202564000052
:1042A0002C32300000B521A08FB0D0E90010CDE94C
:1042B000001020A0D0E90010CDE902101FA0D0E925
:1042C0000010CDE904101FA0D0E90010CDE90610C0
:1042D0001EA0D0E90010CDE908101EA0D0E9001002
:1042E000CDE90A101DA0D0E90010CDE90C106946F7
:1042F0000020FFF7B9FC02A90120FFF7B5FC04A9D3
:104300000220FFF7B1FC06A90320FFF7ADFC08A9C6
:104310000420FFF7A9FC0AA90520FFF7A5FC0CA9BA
:104320000620FFF7A1FC0FB000BD000000000C0646
:10433000030F00000000000E0A1E00000101010131
:1043400001010000040A0400000000000000020057
:10435000021E00000000040A06020408000000001B
:10436000020408100C281DD2DFE800F01C06080A21
:104370000C0E10121416181A0BA070470BA07047E1
:104380000BA070470BA070470BA070470BA07047A5
:104390000BA070470BA070470BA070470BA0704795
:1043A0000BA070470BA070474A616E004665620023
:1043B0004D617200417072004D6179004A756E0066
:1043C0004A756C0041756700536570004F63740057
:1043D0004E6F760044656300062810D2DFE800F0D7
:1043E000030507090B0D07A0704707A0704707A03A
:1043F000704707A0704707A0704707A0704707A045
:10440000704700004D4F4E0054554500574544003D
:1044100054485500465249005341540053554E00EC
:1044200010B50121FFF7D0FD012010BD2DE9F041AD
:10443000094E0A4F0546002425FA04F000F0010257
:1044400036F81410F868FDF720F8641C042CF3DB30
:10445000BDE8F041FFF79ABD5C000020000000209D
:104460002DE9F041094E0A4F0546002425FA04F0D3
:1044700000F0010236F81410F868FDF706F8641C25
:10448000082CF3DBBDE8F041FFF780BD5C000020A5
:104490000000002070B50A2590FBF5F204460AA141
:1044A0000A48FFF765FA94FBF5F005FB1042074850
:1044B00005A1401DFFF75CFA0449491D481FFBF7A1
:1044C0008FFE024870BD0000256400002C00002013
:1044D00002030405060708090A0B0C0D0E0F101045
:1044E0000102030405060708090A0B0C0D0E0F1044
:1044F0000000000000000000010203040607080994
:10450000000000000102030428450008000000200C
:104510005C00000098390008844500085C00002019
:104520006C0A0000A839000801000000000000002B
:10453000000000000000000000000000310000004A
:10454000000000000000000000000000000000006B
:10455000000000000000000000000000000000005B
:10456000000000004D6F74696F6E204465746563D0
:1045700074656400010000001000000000000000ED
:0445800000127A00AB
:040000050800018965
:00000001FF
