:020000040800F2
:10000000180C00209D0100082F3900084B3400080F
:100010002D39000849070008394500080000000094
:10002000000000000000000000000000B7390008D8
:10003000550700080000000051390008B9390008D0
:10004000B7010008B7010008B7010008B7010008B0
:10005000B7010008B70100085907000801090008A6
:10006000310A0008B7010008370A0008B701000884
:10007000B7010008B7010008B7010008B701000880
:10008000B7010008B701000899030008B70100088C
:10009000B7010008B7010008B70100083D0A0008D1
:1000A000B7010008B7010008B7010008B701000850
:1000B000CD3A0008B7010008B7010008B7010008F1
:1000C000B7010008B7010008B7010008B701000830
:1000D000B7010008B7010008AD440008B7010008E7
:1000E000B7010008B7010008B7010008B701000810
:1000F000B7010008B7010008B7010008FD030008B8
:10010000000000000000000000000000B70100082F
:10011000B7010008B7010008B7010008B7010008DF
:10012000B7010008B7010008B7010008B7010008CF
:10013000B7010008B701000800000000000000003F
:10014000B7010008B7010008B7010008000000006F
:10015000000000000000000000000000000000009F
:100160000000000000000000B7010008B70100080F
:10017000B7010008000000000000000000000000BF
:1001800000000000B7010008DFF80CD000F0E2F832
:1001900000480047ED4A0008180C00200648804738
:1001A00006480047FEE7FEE7FEE7FEE7FEE7FEE75C
:1001B000FEE7FEE7FEE7FEE7653A00088901000872
:1001C000202A04DB203A21FA02F00021704721FAAC
:1001D00002F3D040C2F12002914008431946704713
:1001E000421E12F8013F002BFBD111F8013B02F82F
:1001F000013B002BF9D17047421C10F8011B00296C
:10020000FBD1801A7047034611F8012B00F8012B2F
:10021000002AF9D1184670470EB5C10F80EAE07088
:100220000844CA07002140F233438DE80E000A4615
:100230000B4600F040F803B000BD000030B5041ECE
:1002400071F1000404DB4FF00044404264EB010113
:10025000141E73F1000405DB1C464FF000435242AC
:1002600063EB0403994208BF904230BD30B50B46A2
:10027000014600202022012409E021FA02F59D42D6
:1002800005D303FA02F5491B04FA02F52844151EAA
:10029000A2F10102F1DC30BD10B5141E73F10004AF
:1002A00008DA401C41F1000192185B411A4301D168
:1002B00020F0010010BD2DE9F04D92469B4611B192
:1002C000B1FA81F202E0B0FA80F22032904600F0FA
:1002D00053F804460F4640EA0A0041EA0B01534630
:1002E0005A46084313D0114653EA010019D0C8F109
:1002F00040025046FFF764FF05460E4650465946F9
:10030000424600F039F8084305D0012004E02046B9
:100310003946BDE8F08D0020054346EAE0762C43DF
:1003200037430A986305E40AA0EB08000022FD0A9F
:1003300044EA47540A3002D500200146E9E70105A6
:1003400010196941DDE9084500196941BDE8F04D22
:10035000A2E70000064C074D06E0E06840F001030C
:1003600094E8070098471034AC42F6D3FFF710FF2B
:100370007451000894510008202A04DB203A00FA46
:1003800002F1002070479140C2F1200320FA03F3EC
:10039000194390407047000010B5124800F0BEFDB0
:1003A0000446142094FBF0F20FA1104804F0C6F8A4
:1003B0000F48006844630F4800F0B0FD02460AA1F0
:1003C0000D4804F0BBF80B4800F0ACFD054800F008
:1003D000A9FD044801F0C8F8BDE81040054801F047
:1003E000C3B80000F001002025640000380100209F
:1003F000A80300209C010020D40000202DE9F05F1C
:100400009E4800F08BFD64214843FF2190FBF1F4EE
:100410009B4D4E1C4FF0904B4FF480674FF480592A
:100420004FF4005A4FF480483C2C76DDA4F13C0098
:100430000A2813D201223946284601F064FA002224
:10044000F100284601F05FFA00224946284601F0F3
:100450005AFA00225146284601F055FAA4F1460006
:100460000A2813D201223946284601F04CFA01220B
:10047000D102284601F047FA00224946284601F0F9
:1004800042FA00225146284601F03DFAA4F15000FC
:100490000A2813D201223946284601F034FA0122F3
:1004A000D102284601F02FFA01224946284601F0E0
:1004B0002AFA00225146284601F025FA5A2C13DB6D
:1004C00001223946284601F01EFA0122D1022846AF
:1004D00001F019FA01224946284601F014FA0122D6
:1004E0005146284601F00FFA00224146284601F005
:1004F0000AFA00224FF40041284601F004FA0022D3
:100500003146284601F0FFF900224FF400712846D9
:1005100001F0F9F9012279E0FFE7282C7EDA0A2CB4
:1005200015DC01224146284601F0EDF900224FF486
:100530000041284601F0E7F900223146284601F043
:10054000E2F900224FF40071284601F0DCF9A4F131
:100550000B00092814D801224146284601F0D3F99E
:100560000122D103284601F0CEF900223146284667
:1005700001F0C9F900224FF40071284601F0C3F9D7
:10058000A4F11500092814D801224146284601F09B
:10059000BAF90122D103284601F0B5F9012231460A
:1005A000284601F0B0F900224FF40071284601F00E
:1005B000AAF91F3C092C13D801224146284601F014
:1005C000A2F90122D103284601F09DF9012231460A
:1005D000284601F098F901225102284601F093F9CA
:1005E00000224FF40061284601F08DF900224946AF
:1005F000284601F088F900225146284601F083F987
:1006000000223946284601F07EF90022314658463C
:1006100001F079F9194800F085FC00E004E0BDE83C
:10062000F05F164800F0A0BF00224146284601F0C6
:100630006AF900224FF40041284601F064F90022D3
:100640003146284601F05FF900224FF40071284638
:1006500001F059F900224FF40061284601F053F9E6
:1006600000224946284601F04EF90022514628460C
:1006700001F049F9002239462846C9E74402002022
:100680000010004870B504460068816801F003015D
:10069000012926D10168C90723D0816801F00D0125
:1006A000012910D1816841F0020181602168032095
:1006B000086001F02DF905460FE000BF01F028F9B0
:1006C000401B022809D9606C40F010006064A06CE7
:1006D00040F00100A064012070BD20688068C00760
:1006E000ECD1002070BD000070B504460068816840
:1006F00001F00301012902D10168C90720D18168F5
:10070000104A11420DD1816841F00101816001F070
:10071000FFF805460FE000BF01F0FAF8401B022881
:1007200009D9606C40F010006064A06C40F00100DA
:10073000A064012070BD20680068C043C007EBD1F1
:10074000002070BD3F000080FEE710B504F066F8A1
:10075000002010BD704700002DE9F0410024DFF8B3
:100760009081644F644D654E07E034B1012C0BD08D
:10077000022C15D0032C38D123E001221021304661
:1007800001F0C1F8002205E000221021304601F0FE
:10079000BAF801222021304601F0B5F800220AE023
:1007A00000221021304601F0AEF800222021304610
:1007B00001F0A9F801224021304601F0A4F80022FE
:1007C0000FE000221021304601F09DF80022202188
:1007D000304601F098F800224021304601F093F8AD
:1007E00001228021304601F08EF80121284601F0D7
:1007F00085F8C0B1BCB93868032801D028B109E038
:1008000000203860C8F8000004E0032002213860AE
:10081000C8F800100121284601F070F80028F9D12D
:10082000142000F087FF0121284601F067F8B8B1D5
:10083000012C15D13868032809D1D8F80000C21C52
:10084000142A01DD022000E0C01CC8F800000121CC
:10085000284601F053F80028F9D1142000F06AFF6F
:100860000121284601F04AF878B1022C0DD13868F0
:10087000032801D104F0B2F80121284601F03EF826
:100880000028F9D1142000F055FF0121284601F07D
:1008900035F878B1032C0DD13868032801D104F064
:1008A0009DF80121284601F029F80028F9D11420EB
:1008B00000F040FF01221021304601F024F801220F
:1008C0002021304601F01FF801224021304601F07E
:1008D0001AF801228021304601F015F8641C042C1E
:1008E000FFF643AFBDE8F041012000F037BF000044
:1008F0001C0000201400002000040048000C0048E8
:100900002DE9F0410024474F474D484E07E034B1F0
:10091000012C0BD0022C15D0032C38D123E001225E
:100920001021304600F0EFFF002205E000221021E8
:10093000304600F0E8FF01222021304600F0E3FFBE
:1009400000220AE000221021304600F0DCFF0022E5
:100950002021304600F0D7FF01224021304600F030
:10096000D2FF00220FE000221021304600F0CBFF22
:1009700000222021304600F0C6FF002240213046F0
:1009800000F0C1FF01228021304600F0BCFF0221AF
:10099000284600F0B3FF98B194B93868012802D016
:1009A000022802D003E0022000E00120386002218A
:1009B000284600F0A3FF0028F9D1142000F0BAFE69
:1009C0000221284600F09AFF78B1032C0DD1386837
:1009D000032801D103F040FF0221284600F08EFFDA
:1009E0000028F9D1142000F0A5FE01221021304684
:1009F00000F089FF01222021304600F084FF01220F
:100A00004021304600F07FFF01228021304600F077
:100A10007AFF641C042CFFF67AAFBDE8F041022097
:100A200000F09CBE1400002000040048000C0048A8
:100A3000042000F093BE102000F090BE10B54FF4DB
:100A40007A7310220649074802F0A4FC142000F033
:100A500071FEBDE810404FF4007000F07FBE000052
:100A60003C000020E8030020704770477047704743
:100A7000F0B5002302684FF0A04C3D4C95B01F46E6
:100A8000624501D100940DE0A24202D1CDF800C030
:100A900008E0384D384EAA4201D1009602E0B24239
:100AA00014D1009590F84050012D12D0012580F806
:100AB000405095686D0752D4009DAD686D074ED4C7
:100AC000624501D0A24206D12C4A05E0012015B0B2
:100AD000F0BD0220FBE72A4A0D6840F61F741DB3E3
:100AE0009568466B25F4604545EA46354E683543C2
:100AF00095600568AE6806F00306012E02D12D68E8
:100B0000ED0731D1009DAD6805F00305012D03D13E
:100B1000009D2D68ED0727D10D6889680D43916808
:100B2000A1430D4395601FE0916821F460419160FD
:100B300001688D6805F00305012D02D10968C90718
:100B400012D10099896801F00301012903D10099AC
:100B50000968C90708D19168A143916004E0416C1C
:100B600041F020014164012380F840701846AEE74F
:100B70000001005000040050000500500003005028
:100B800000070050F0B595B00024009490F8402084
:100B90002546012A19D0012780F8407003689A6819
:100BA00052077CD44A681F26052A11D2D3F830C0D8
:100BB00002EB4202520096402CEA060C0E68964068
:100BC0004CEA060CC3F830C035E0022015B0F0BD89
:100BD0000A2A0FD2D3F834C0521F02EB420252004D
:100BE00096402CEA060C0E6896404CEA060CC3F8B8
:100BF00034C020E00F2A0FD2D3F838C00A3A02EBF3
:100C00004202520096402CEA060C0E6896404CEACE
:100C1000060CC3F838C00EE0D3F83CC00F3A02EB24
:100C20004202520096402CEA060C0E6896404CEAAE
:100C3000060CC3F83CC00268936813F00C0F4FF029
:100C4000070374D1D1F800E0BEF10A0F10D3966902
:100C5000AEF10A0E0EEB4E0C03FA0CFE26EA0E065F
:100C6000D1F808E00EFA0CFE46EA0E0696610FE097
:100C7000D2F814C00EEB4E0603FA06FE2CEA0E0C58
:100C8000D1F808E00EFA06FE4CEA0E0CC2F814C0C9
:100C900002684E69D2F80CC0CCF3C10C00E0FDE054
:100CA0004FEA4C0C06FA0CF6D1F810E0DFF848C217
:100CB000BEF1010F42D0BEF1020F4DD0BEF1030FC5
:100CC00058D0BEF1040F63D0166E91F800C006F044
:100CD000F846B6EB8C6F03D1166E26F0004616660A
:100CE0000268566E91F800C006F0F846B6EB8C6FBD
:100CF00003D1566E26F0004656660268966E91F84D
:100D000000C006F0F846B6EB8C6F03D1966E26F065
:100D1000004696660268D66E91F800C006F0F84666
:100D2000B6EB8C6F03D1D66E26F00046D66602680D
:100D3000966806F00306012E3AD136E0D2F860E05C
:100D40000EEA0C0E91F800C046EA8C664EEA060EDA
:100D50004EF000461666EAE7D2F864E00EEA0C0EA2
:100D600091F800C046EA8C664EEA060E4EF0004648
:100D70005666DCE7D2F868E00EEA0C0E91F800C087
:100D800046EA8C664EEA060E4EF000469666CEE7C0
:100D9000D2F86CE00EEA0C0E91F800C046EA8C66C0
:100DA0004EEA060E4EF00046C0E71668F6077AD106
:100DB000CE68012E06D052F8B03F0E78B740BB4344
:100DC000136021E052F8B06F91F800C007FA0CF7F9
:100DD0003E4316600A680A2A0BD30668B769093AC7
:100DE00002EB420293409F438B6893401F43B761DD
:100DF0000AE007687E69521C02EB420293409E4360
:100E00008B6893401E437E6103684FF0A0473B4EC2
:100E1000BB4201D0B34201D1394A00E0394A0968E6
:100E2000102904D0112907D012290AD03BE0D2F8AA
:100E300008C04FEA0C2C08E0D2F808C04FEACC1CDE
:100E400003E0D2F808C04FEA4C2CBCF1000F2ADBBB
:100E5000BB420DD0B34201D100970CE02A4EDFF81F
:100E6000ACC0B34202D1CDF800C004E0634501D16B
:100E7000009600E000959E6806F00306012E02D160
:100E80001E68F6070AD1009E8EB1B66806F003060A
:100E9000012E0CD1009E3668F60708D0416C41F057
:100EA00020014164012480F8405020468EE610293C
:100EB00008D011291AD01229F5D1916841F4800186
:100EC0009160F0E7BB42EED1916841F4000191607E
:100ED0000F49104A0968B1FBF2F101EB81014900A9
:100EE00000E0491E00910029FBD1DCE7BB42DAD1CA
:100EF000916841F08071E3E700F0FF83000100504A
:100F0000000300500007005000040050000500508E
:100F10005C00002040420F00704770470068006C82
:100F2000704700002DE9F041044600680168C34F96
:100F3000C34DC44E49074FF0A04802D54168490748
:100F400005D40168090761D5416809075ED5616C60
:100F5000C90603D4616C41F4007161644146884262
:100F600001D0B04202D1D1F8082300E03A6812F073
:100F70001F0F1BD0884201D0B04202D1D1F8082304
:100F800000E03A6802F01F02052A0FD0884201D023
:100F9000B04202D1D1F8082300E03A6802F01F0203
:100FA000092A03D0884201D0A84201D1C16803E0D8
:100FB000B04200D02946C968C26812F4406F1FD100
:100FC00089041DD4016809071AD5816849070FD41F
:100FD000416821F00C014160606C20F48070606415
:100FE000606CC0040CD4606C40F00100606407E0E9
:100FF000606C40F010006064A06C40F00100A064E0
:101000002046FFF789FF21680C20086020680168EE
:10101000890602D54168890605D4016849066ED55E
:10102000416849066BD5616C41F4005161644246E8
:10103000904201D0B04202D1D2F8081300E03968E2
:1010400011F01F0F1CD0904201D0B04202D1D2F853
:10105000081300E0396801F01F01052910D041464E
:10106000884201D0B04202D1D1F8083300E03B6899
:1010700003F01F03092B03D0884201D0A84201D1FD
:10108000C16803E0B04200D02946C968C36C13F0C0
:10109000C00F07D08B0154D4C36813F4406F50D1F4
:1010A00089044ED4016849064BD51146884201D0C7
:1010B000B04202D1D1F8082300E03A6812F01F0FC5
:1010C0001BD0884201D0B04202D1D1F8082300E001
:1010D0003A6802F01F02062A0FD0884201D0B042BF
:1010E00002D1D1F8082300E03A6802F01F02072A73
:1010F00003D0884201D0A84202D1C16804E026E0B2
:10110000B04200D02946C96889021AD4816809070B
:101110000FD4416821F060014160606C20F4805080
:101120006064606CC0050CD4606C40F001006064C9
:1011300007E0606C40F010006064A06C40F00100BB
:10114000A0642046FFF790FC2168602008602068BA
:10115000016809060CD54068000609D5606C40F4AA
:1011600080306064204600F095F921688020086096
:1011700020680168C9050DD54068C0050AD5606CB6
:1011800040F4003060642046FFF770FC21684FF4A3
:10119000807008602068016889050DD54068800569
:1011A0000AD5606C40F4802060642046FFF75FFC45
:1011B00021684FF40070086020680168C90622D5D4
:1011C0004168C9061FD5A16B01290ED0404501D049
:1011D000B04201D11C4901E0184908398A68D20699
:1011E00028D0886800F4404050B1606C40F48060C2
:1011F0006064A06C40F00200A0642046FFF78DFE02
:1012000021681020086020680168490510D54168F0
:1012100049050DD5616C41F480416164A16C41F0D8
:101220000801A1644FF4806101602046FFF71DFCB6
:10123000BDE8F081C068C007D6E70000080700508D
:10124000000400500001005000030050F0B54FF0C2
:10125000000695B0040037463546009605D0606C10
:10126000C00648D4606C18B133E0012015B0F0BD61
:10127000A5642565E56484F84050204600F00CF92B
:1012800020688068C00024D42046FFF7FBF906469A
:10129000606CC0061DD4E6B9606C20F4885040F044
:1012A000020060642068816821F0405181602068FC
:1012B000816841F0805181606D486E490068B0FBE3
:1012C000F1F000EB8000400000E0401E009000289C
:1012D000FBD120688168C90002D5806880000AD5EA
:1012E000606C20F0020040F010006064A06C40F0E0
:1012F0000100A0640126606CC00675D4002E73D175
:101300002068816849076FD4616C21F4807141F0D5
:10131000020161644FF0A04E574B704501D09842D6
:1013200001D1564A00E0564ADFF858C15649704587
:1013300001D100930EE0984202D1CDF800E009E01F
:10134000884202D1CDF800C004E0604501D100918F
:1013500000E00095836803F00303012B02D10068CD
:10136000C00710D1009840B1806800F00300012848
:1013700003D100980068C00705D19068636820F425
:10138000403018439060D4E902201043A26B012A38
:1013900002D04FF4805300E00023E26943EA423375
:1013A0001843636A3843012B0AD1F2B1626C22F010
:1013B000020242F020026264A26C42F00102A264C6
:1013C000E26A012A21D023688B4201D0634518D1FB
:1013D0004FF430774FF4E071BA4213D04FF480737A
:1013E0009A420AD139460DE038E0228D274B03EBB3
:1013F0004242024342F48030E2E78A4201D1194678
:1014000000E011460143206B084321688A6812F00E
:101410000C0F0AD1CA6844F202039A43CA60A16958
:10142000626B890341EA420108432268D168184B84
:1014300019400143D160206901282068016B21F027
:101440000F0102D1226A521E11430163A564606C30
:1014500020F0020040F00100606406E0606C20F0C3
:10146000020040F01000606401263046FEE60000F5
:101470005C00002040420F000001005000030050BB
:101480000007005000050050000400500000FEFF5F
:1014900007C0F0FF7047000070B52D4A05680023B3
:1014A00010682C490324401C86B0B5F1A04F06D02B
:1014B000294EB54230D11060012813D01AE01060D7
:1014C000012807D1486940F080504861486900F020
:1014D000805005900220CDE90004694602934FF048
:1014E00090400DE0486940F080504861486900F044
:1014F000805005901020CDE90004694602931748FA
:1015000000F038F900220321122000F063FB1220C2
:1015100000F054FB06B070BD11488542FAD148690D
:1015200040F0005048614869694600F0005005905D
:101530004FF40050CDE9000402930A4800F01AF974
:10154000002203212F2000F045FB2F20E0E70000C0
:101550004C0000200010024000010050000800482C
:1015600000040050000400482DE9F04104460068E2
:101570008068400770D494F8400001280CD0012006
:1015800084F840002046FFF7AFF803004FF0000654
:1015900005D084F840609EE00220BDE8F081606CD8
:1015A00040F60161884340F48070606420684FF029
:1015B000A0414A4A4A4D884201D0904202D1D1F816
:1015C000087300E02F6817F01F0F464F03D08842C2
:1015D00001D0B8420BD1D4F844C02CF4801CC4F81C
:1015E00044C0D0F80CC05FEA8C1C14D41BE0D4F8C3
:1015F00044C04CF4801CC4F844C0904202D1D1F8DD
:101600000CC005E0DFF8DCC00CF10C0CDCF800C00D
:101610001CF0007F07D0D4F844C02CF4005C4CF4DC
:10162000805CC4F844C0D4F844C05FEACC4C06D512
:10163000D4F848C02CF0060CC4F848C000E0A664FA
:1016400084F840601C2606606069082820684668A7
:1016500003D046F00C0607E03CE026F004064660A6
:101660002068466846F008064660A06B012804D151
:101670002068466826F0100646602068884201D03F
:10168000904202D1D1F8084300E02C6814F01F0FFB
:101690001BD0884201D0904202D1D1F8084300E02B
:1016A0002C6804F01F04052C0FD0884201D0904212
:1016B00002D1D1F8082300E02A6802F01F02092AAB
:1016C00003D0884201D0B84205D1816841F00401BD
:1016D000816000E0022318465FE70000000100502F
:1016E000080700500004005010B590F821100024A5
:1016F000022903D004218163012418E001680A68EB
:1017000022F00E020A6001680A6822F001020A60F3
:1017100090F84020C36B012101FA02F25A6080F870
:101720002110002180F82010416B01B1884720462C
:1017300010BD000070B5044600F0EAF80546601CD4
:1017400002D004480078044400F0E2F8401BA042B4
:10175000FAD370BD5000002070470000044910B556
:101760000A68024202D00860FFF7F6FF10BD0000D1
:10177000140401402DE9F84FDFF864B100234FF065
:10178000010C4FF0030A4FF00F090BF1040EA0E01B
:101790000CFA03F6324072D04C68022C01D0122CA5
:1017A0000ED1DC0800EB8408D8F820405D07EF0E6E
:1017B00009FA07F5AC430D69BD402543C8F8205030
:1017C00007685D0091F804800AFA05F408F0030840
:1017D000A74308FA05F848EA0708C0F800804F68F0
:1017E000012F05D0022F03D0112F01D0122F11D1BC
:1017F0008768D1F80C80A74308FA05F848EA07087B
:10180000C0F808804768B7430E79C6F300169E40BB
:101810003E434660C668A6438C68AC403443C4600F
:101820004C68E40054D52F4CA56945F00105A5612D
:10183000A46923F0030504F0010400942A4C2E1936
:10184000B4689D072F0F09FA07F5AC43B0F1904F2C
:1018500004D0264DA84203D1012512E0002510E056
:10186000234DA84201D102250BE0224DA84201D10F
:10187000032506E0204DA84202D1042501E027E01F
:101880000525BD402543B560DBF800405D464E6848
:101890009443F60300D514432C60DEF800407546EF
:1018A0004E689443B60300D514432C600C4D0835A4
:1018B0002C684E689443F60200D514432C60084D02
:1018C0000C352C684E689443B60200D514432C6046
:1018D0005B1C0A6832FA03F47FF45AAFBDE8F88F54
:1018E00000040140001002400000014000040048D4
:1018F00000080048000C004800100048006908403B
:1019000000D0012070470AB1816170478162704741
:1019100001488068704700005000002090F8412086
:10192000202A24D190F84020012A20D0012280F8DA
:101930004020242280F841200268136823F001032C
:1019400013600268136823F48053136002681368FD
:101950000B43136001680A6842F001020A6020210B
:1019600080F84110002180F840100846704702209E
:10197000704790F84120202A22D190F84020012A77
:101980001ED0012280F84020242280F841200268E5
:10199000136823F0010313600268136823F4706373
:1019A00043EA0121116001680A6842F001020A60FD
:1019B000202180F84110002180F84010084670472F
:1019C0000220704770B5040004D094F8410000254F
:1019D00010B106E0012070BD84F84050204600F0B0
:1019E0004DF8242084F841002068016821F00101AD
:1019F00001606068216820F070600861206881687B
:101A000021F400418160E0680128A06807D040F41B
:101A1000044021688860E068022803D006E040F4B2
:101A20000040F6E721684FF4006048602068416894
:101A3000114A114341602068C16821F40041C1602E
:101A4000D4E904010843A16940EA01202168C86083
:101A5000D4E907010843216808602068016841F063
:101A6000010101606564202084F84100256384F849
:101A70004250002070BD00000080000200B50068E8
:101A80000E4987B0884216D1C020009012200190E4
:101A90000120029003200390042004906946084826
:101AA000FFF768FE0748C16941F40011C161C069D0
:101AB00000F40010059007B000BD00000054004085
:101AC0000004004800100240024881680278114476
:101AD0008160704750000020074810B5016841F050
:101AE00010010160032000F095F8002000F006F8D6
:101AF00000F024F8002010BD0020024070B50D4D0C
:101B000004464FF47A712878B1FBF0F00A4909686D
:101B1000B1FBF0F001F023F848B9102C07D20022F5
:101B20002146501E00F056F800206C6070BD012068
:101B300070BD0000500000205C0000201E4808B569
:101B4000816941F001018161816901F00101009128
:101B5000C16941F08051C161C06900F080500090BE
:101B6000042000F057F8002211466FF00B0000F03F
:101B700031F8002211466FF00A0000F02BF8002225
:101B800011466FF0090000F025F800221146501FA1
:101B900000F020F800221146101F00F01BF8002270
:101BA0001146901E00F016F80022BDE808401146CC
:101BB000501E00F00FB800000010024000F01F029D
:101BC000012191404009800000F1E020C0F800119F
:101BD00070470000F0B40E4B1B680C46C3F30223A1
:101BE000C3F10705042D00D90425191D072901D2C9
:101BF000002300E0DB1E012606FA05F1491E214004
:101C000099409E40761E16403143F0BC01F090BED4
:101C10000CED00E0064900F0070208684FF6FF03EC
:101C2000184040EA0220034A104308607047000051
:101C30000CED00E00000FA0570B504004FF000065E
:101C400004D094F87103002510B106E0012070BDA6
:101C500084F87053204600F043F8032084F87103A1
:101C600001220CE0C6EBC60004EB800080F82920BE
:101C700000F8286F761CC570C56005614561606815
:101C8000B042EFD8002010E0C0EBC00104EB8101AE
:101C900081F8CD5181F8CC0181F8CF51C1F8D851EC
:101CA000C1F8DC51401CC1F8E05161688142EBD8B9
:101CB0002068A0F840202068A0F840502068A0F8D4
:101CC00044502068A0F8505021684FF43F40A1F8DC
:101CD000400084F8245084F87123002070BD000077
:101CE00000B500680F4987B0884218D14FF4C05042
:101CF00000900220019000200290032003900E200B
:101D0000049069464FF09040FFF734FD0648C169E2
:101D100041F40001C161C06900F40000059007B002
:101D200000BD0000005C0040001002402DE9F84FAB
:101D300004460068804DC0036FD5E8690026C000E6
:101D400008D4E86940F08050E861E869012600F0B5
:101D50008050009079480168C90512D40168804616
:101D600041F480710160FFF7D3FD074605E000BF35
:101D7000FFF7CEFDC01B642835D8D8F80000C00599
:101D8000F6D5286A10F4407053D0A18801F4407150
:101D900081424ED0286A4FF4803191FAA1F2B2FA12
:101DA00082F29700664A4FF00108174420F4407011
:101DB000C7F8008491FAA1F1B1FA81F102EB810137
:101DC0000023C1F800342862C00732D0FFF7A0FD1D
:101DD000074641F2883A4FF0020907E0FFF798FD05
:101DE000C11B514502D90320BDE8F88F99FAA9F12A
:101DF000B1FA81F141F040014846B8EB511F01D1E1
:101E000029680CE090FAA0F1B1FA81F141F04001AB
:101E1000B0EB511F02D1296A01E015E0696A99FA15
:101E2000A9F0B0FA80F000F01F0008FA00F21142A9
:101E3000D4D0286A616820F44070084328621EB13B
:101E4000E86920F08050E8612078C00705D0286B51
:101E5000A16820F00300084328632078800705D597
:101E6000286BE16820F4403008432863207840075D
:101E700005D5286B216920F4402008432863207889
:101E8000800605D5286BE16920F01000084328631F
:101E90002068800305D56868A16B20F480000843A2
:101EA00068602078400605D5286B216A20F0200064
:101EB000084328632078000705D5286B616920F462
:101EC0004010084328632078C00605D5286BA16917
:101ED00020F44000084328632088800505D5686801
:101EE000E16A20F40000084368602078000605D508
:101EF000E86A616A20F4F8700843E8622088C00547
:101F000005D5E86AA16A20F478500843E862208881
:101F1000C00405D5286B216B20F48070084328632A
:101F20002088800405D5286B616B20F4007008437D
:101F30002863002058E700000010024000700040B5
:101F4000000042422DE9F0470F46050069D04A4E95
:101F5000306800F00700B84209D2306820F007006E
:101F600038433060306800F00700B84259D1287813
:101F7000424C800705D56068A96820F0F00008434E
:101F800060602878C0073DD06968012001290DD024
:101F9000022923D05FF0020393FAA3F2B2FA82F28D
:101FA00042F02002520904D0226803E04FF40033CB
:101FB000F2E7626A93FAA3F3B3FA83F303F01F0321
:101FC000984002422DD0606820F003000843606012
:101FD000FFF79EFC804641F288390CE04FF0007319
:101FE000DAE700BFFFF794FCA0EB0801494502D9EE
:101FF0000320BDE8F0876068696800F00C00B0EB72
:10200000810FEFD1306800F00700B8420BD930687B
:1020100020F0070038433060306800F00700B84215
:1020200001D00120E5E72878400705D56068E96818
:1020300020F4E060084360602878000706D56068F7
:10204000296920F4605040EAC100606000F052F855
:102050006168F02292FAA2F201F0F001B2FA82F283
:10206000D140074A515CC840064908600020FFF78C
:1020700045FD0020BDE700000020024000100240A6
:102080005C5100085C0000200148006870470000B7
:102090005C00002008480949006849684FF4E06284
:1020A00092FAA2F201F4E061B2FA82F2D140044A5B
:1020B000515CC840704700005C00002000100240E6
:1020C0006C51000808480949006849684FF460529B
:1020D00092FAA2F201F46051B2FA82F2D140044ABB
:1020E000515CC840704700005C00002000100240B6
:1020F0006C510008144B10B55A68144802F00C01DA
:1021000004291DD008291BD14FF4701494FAA4F4AB
:1021100002F47011B4FA84F4E1400D4CDB6A615CA6
:102120000F2494FAA4F403F00F03B4FA84F4E34008
:10213000074C1034D203E35C03D5B0FBF3F0484303
:1021400010BD0448484310BD0010024000127A0040
:102150003C51000800093D002DE9F84F040071D002
:102160002078FB4DC0074FF0010625D06868770442
:10217000C0F38100012807D06868C0F381000228FD
:102180001BD16868C00318D597FAA7F0B0FA80F0A1
:1021900040F02000400901D0286800E0686A97FA02
:1021A000A7F1B1FA81F101F01F0106FA01F108422D
:1021B00065D060680028D2D061E06068B0F5803FEB
:1021C0000BD010B1B0F5A02F17D0286820F48030C4
:1021D0002860286820F4802002E0286840F48030DD
:1021E0002860E86AA16820F00F000843E862606890
:1021F00020B3FFF78DFB80460AE0286840F480207A
:102200002860EAE7FFF784FBA0EB0800642872D897
:1022100097FAA7F0B0FA80F040F02000400901D012
:10222000286800E0686A97FAA7F1B1FA81F101F035
:102230001F0106FA01F10842E4D020E0FFF768FB35
:10224000804607E0C7E000BFFFF762FBA0EB080095
:102250006428DCD897FAA7F0B0FA80F040F02000AC
:10226000400901D0286800E0686A97FAA7F1B1FA3E
:1022700081F101F01F0106FA01F10842E4D1207852
:10228000DFF8D08280074FF0000A4FF0020759D5DF
:1022900068684FF0F80B10F00C0F07D06868C0F3B7
:1022A000810002281BD16868C00318D497FAA7F0F0
:1022B000B0FA80F040F02000400901D0286800E02A
:1022C000686A97FAA7F1B1FA81F101F01F0106FAE5
:1022D00001F108422BD0206901287CD127E0206938
:1022E00088B396FAA6F0B0FA80F048F82060FFF7BD
:1022F0000FFB814606E055E1FFF70AFBA0EB090062
:10230000022884D897FAA7F0B0FA80F040F02000B5
:10231000400901D0286800E0686A97FAA7F1B1FA8D
:1023200081F101F01F0106FA01F10842E4D02868AA
:102330009BFAABF26169B2FA82F220F0F8009140A8
:102340000843286025E0FFE796FAA6F1B1FA81F18B
:1023500048F821A0FFF7DCFA814605E0FFF7D8FA3C
:10236000A0EB09000228CCD897FAA7F0B0FA80F0C9
:1023700040F02000400901D0286800E0686A97FA20
:10238000A7F1B1FA81F101F01F0106FA01F108424B
:10239000E4D1207800076AD5A069A0B396FAA6F028
:1023A000B0FA80F008EB8000C0F88064FFF7B0FA64
:1023B000814605E0FFF7ACFAA0EB09000228A0D89F
:1023C00097FAA7F0B0FA80F040F06000B6EB501F2B
:1023D00002D128680CE077E197FAA7F0B0FA80F014
:1023E00040F06000B7EB501F01D1286A00E0686A36
:1023F00097FAA7F1B1FA81F101F01F0106FA01F293
:102400001042D7D033E0FFE796FAA6F0B0FA80F09A
:1024100008EB8000C0F880A4FFF77AFA814605E057
:10242000FFF776FAA0EB090002289CD897FAA7F0EC
:10243000B0FA80F040F06000B6EB501F01D1286880
:102440000BE097FAA7F0B0FA80F040F06000B7EB2D
:10245000501F01D1286A00E0686A97FAA7F1B1FA23
:1024600081F101F01F0106FA01F21042D8D1207863
:10247000400774D5E8694FF00009C00009D4E86945
:1024800040F08050E861E8694FF0010900F08050A9
:10249000009031480168C90512D4016841F4807187
:1024A0000160FFF735FA834606E000BFFFF730FA18
:1024B000A0EB0B00642875D827480068C005F5D547
:1024C000E06801280AD008B1052811D0286A20F058
:1024D00001002862286A20F0040002E0286A40F027
:1024E00001002862E068C8B3FFF712FA83460DE0E6
:1024F000286A40F004002862F0E700BFFFF708FAFE
:10250000A0EB0B0141F2883081424BD897FAA7F03B
:10251000B0FA80F040F04000B6EB501F01D12868BF
:102520000BE097FAA7F0B0FA80F040F04000B7EB6C
:10253000501F01D1286A00E0686A97FAA7F1B1FA42
:1025400081F101F01F0106FA01F21042D6D035E008
:1025500000100240000042420070004000E034E001
:10256000FFF7D6F9834607E0FFF7D2F9A0EB0B019E
:1025700041F28830814215D897FAA7F0B0FA80F07E
:1025800040F04000B6EB501F01D128680CE097FAEC
:10259000A7F0B0FA80F040F04000B7EB501F02D136
:1025A000286A01E083E0686A97FAA7F1B1FA81F13D
:1025B00001F01F0106FA01F21042D5D1B9F1000F66
:1025C00003D0E86920F08050E861E06980B3696871
:1025D000C1F38101022977D04FF080714F000228AA
:1025E00009D091FAA1F0B0FA80F048F820A0FFF7E6
:1025F0008FF904465EE050468A4691FAA1F1B1FA9D
:1026000081F1C14648F82100FFF782F9804605E0D4
:10261000FFF77EF9A0EB0800022848D897FAA7F048
:10262000B0FA80F040F02000400902D0286801E0B4
:1026300056E0686A97FAA7F1B1FA81F101F01F013B
:1026400006FA01F10842E3D1D4E9081008436968A9
:1026500021F47411084368609AFAAAF0B0FA80F085
:1026600049F82060FFF754F9044604E0FFF750F9F9
:10267000001B02281BD897FAA7F0B0FA80F040F0B0
:102680002000400901D0286800E0686A97FAA7F1A5
:10269000B1FA81F101F01F0106FA01F10842E5D01B
:1026A0001EE000BFFFF734F9001B022802D9032007
:1026B000BDE8F88F97FAA7F0B0FA80F040F020005C
:1026C000400902D0286801E00CE0686A97FAA7F197
:1026D000B1FA81F101F01F0106FA01F10842E1D1DE
:1026E0000020E5E70120E3E710B500680B464168EC
:1026F0000D480140080CD870C1F304245C7001F04F
:102700003F049C70C1F34231197052B901F021F9B4
:10271000D870587801F01DF95870987801F019F9BF
:102720009870002010BD00003FFFFF0010B50B4661
:102730000168896A596001680969C1F30E019960ED
:10274000006801680E480140C1F305401870C1F3EC
:1027500006245C7001F07F049C70402404EA11415F
:10276000D97052B901F0F5F81870587801F0F1F805
:102770005870987801F0EDF89870002010BD0000B6
:102780007F7F7F0070B5040002D0607F10B106E04B
:10279000012070BD00202077204600F049F802207B
:1027A00060772168CA204862216853204862204629
:1027B00001F0E4F8FF25042618BB206881681B4A55
:1027C000114081602168886862681043D4E904235D
:1027D0001A43104388602168E06808612068016935
:1027E000228941EA024101612068C16821F080012B
:1027F000C16020688068800607D4204600F008F990
:1028000018B1206845626677C2E72068016C21F440
:10281000802101642068016CA26911430164206871
:10282000456201206077002070BD0000BFFF8FFF70
:102830000068074988420AD10120C10391FAA1F139
:10284000044AB1FA81F102EB8101C1F8000470473A
:1028500000280040000042422DE9F0470446007F76
:102860000B4601281FD04FF0010984F81C9002206C
:102870006077DAB19878D97840EA014558781978C4
:10288000000240EA413005432168CA2048622168BD
:1028900053204862204601F071F80026FF274FF0D0
:1028A000040860BB1AE00220BDE8F0875878C10632
:1028B00003D500F0EF000A305870D87801F052F8D4
:1028C0000204587801F04EF842EA0022987801F0AC
:1028D00049F80243187842EA4035D5E70F480540E9
:1028E000206845602068C16821F08001C1602068CF
:1028F000806880060AD4204600F08AF830B120684B
:10290000476284F81D8026770120CDE72068476262
:1029100084F81D9026770020C6E700003FFFFF00E7
:102920002DE9F0470446007F0D46012811D04FF0F5
:10293000010A84F81CA002206077206800268068C5
:102940004FEA406042B100281ADA287801F001F815
:1029500017E00220BDE8F087002800DBEE70287841
:1029600001F000F80204687800F0FCFF42EA00225F
:10297000A87800F0F7FF0243E87842EA00470AE04F
:10298000EE70A878297840EA01476878E978000273
:1029900040EA014007432168CA2048622168532069
:1029A0004862204600F0EAFF4FF0FF084FF00409AC
:1029B000E0B916480740206807602068816821F464
:1029C00080218160D5E90301084321688A681043AA
:1029D00088602068C16821F08001C160206880683B
:1029E00080060BD4204600F013F838B12168C1F8F6
:1029F000248084F81D9026770120ABE72168C1F878
:102A0000248084F81DA026770020A3E77F7F7F0025
:102A100070B504460068C16821F0A001C160FEF7EE
:102A200077FF05464FF47A7607E000BFFEF770FFA8
:102A3000401BB04201D9032070BD2068C0688006E9
:102A4000F4D5002070BD2DE9F041040005D000252B
:102A5000A56294F85D0018B107E00120BDE8F0819F
:102A600084F85C50204600F049F8022384F85D3079
:102A70002068016821F040010160E0684FF4E066E1
:102A8000B04201D9002101E04FF48051B0F5706FE0
:102A900002D0B04200D0A562276B012227B9B04214
:102AA00001D9236300E02263D4E901031843D4E988
:102AB000043633431843238B03F400731843E3694C
:102AC0001843236A1843A36A184323681860636B8A
:102AD000606AA66918430427E36807EA1646334389
:102AE00018430843216848602068C16921F40061E7
:102AF000C161256684F85D200020AFE700B500685D
:102B00000E4987B0884217D10D48816941F4805140
:102B100081618069694600F480500590E020009052
:102B200002200190002002900320039005200490D1
:102B30004FF09040FEF71EFE07B000BD0030014090
:102B4000001002404FF0E0210428086903D020F073
:102B500004000861704740F00400FAE7704710B5C0
:102B6000401EB0F1807F01D3012010BD4FF0E02462
:102B700060610F21601700F0DBFE0020A0610720DC
:102B80002061002010BD10B5FFF7E8FF10BD7047B1
:102B90007047704730B590F83C20012A1FD00122C1
:102BA00080F83C200268536894680E4DAA4202D017
:102BB0000D4DAA4203D123F470054B682B4323F03B
:102BC00070050B6889682B4324F08004214353600F
:102BD00002689160002180F83C10084630BD022058
:102BE00030BD0000002C01400034014010B504004D
:102BF00003D094F83D0010B107E0012010BD002083
:102C000084F83C00204600F00DF8022084F83D00D6
:102C1000211D206800F0E8FF012084F83D0000201D
:102C200010BD000008B50068B0F1804F12D10A480D
:102C3000C16941F00101C161C069002200F00100D9
:102C4000009002211C20FEF7C5FFBDE808401C20B3
:102C5000FEF7B4BF08BD0000001002400168CA685A
:102C600042F00102CA600068016841F001010160A0
:102C70000020704770B5044690F83C00012817D03A
:102C8000012584F83C50022084F83D0022689068B9
:102C9000364E304020F47F4090600868502839D08C
:102CA0000DDC20285BD005DC98B3102843D153E01D
:102CB000022070BD302855D040283CD141E060282A
:102CC00030D070280CD0B0F5805F03D0B0F5005F35
:102CD00031D112E020688168244A7032114016E038
:102CE000CB68D1E90121206800F0E1FF2168886804
:102CF000304040F0770088601DE0CB68D1E90121C9
:102D0000206800F0D4FF2068816841F48041816030
:102D100011E01EE0CA684968206801F063F950219B
:102D2000206806E0CA684968206801F06CF96021F3
:102D3000206800F0C6FF84F83D50002084F83C0075
:102D400070BDCA684968206801F04CF940212068CC
:102D5000EFE700212068ECE710212068E9E7202157
:102D60002068E6E730212068E3E7000088FFFEFFE7
:102D7000704770B50446006801694FF00005C9430B
:102D8000890715D4C168C943890711D4E91E0161B7
:102D900001202077206880698007204602D0FFF755
:102DA000E7FF04E000F0C0F8204600F081F9257745
:102DB00020680169C943490717D4C168C943490755
:102DC00013D46FF00401016102202077206880692C
:102DD00010F4407F204602D0FFF7CAFF04E000F065
:102DE000A3F8204600F064F9257720680169C943FB
:102DF000090716D4C168C943090712D46FF0080146
:102E00000161042020772068C0698007204602D035
:102E1000FFF7AEFF04E000F087F8204600F048F925
:102E2000257720680169C943C90617D4C168C94319
:102E3000C90613D46FF010010161082020772068C3
:102E4000C06910F4407F204602D0FFF791FF04E0F4
:102E500000F06AF8204600F02BF925772068016918
:102E6000C943C90708D1C168C943C90704D1891E2C
:102E70000161204600F04AF920680169C94309064A
:102E800009D4C168C943090605D46FF08001016106
:102E90002046FFF77DFE20680169C943C90509D4B2
:102EA000C168C943090605D46FF4807101612046E9
:102EB000FFF76DFE20680169C943490609D4C1685E
:102EC000C943490605D46FF040010161204600F076
:102ED0001EF920680169C94389060BD4C168C9433A
:102EE000890607D46FF0200101612046BDE87040DB
:102EF000FFF74FBE70BD000000B50068084985B0FF
:102F000088420BD10420009002200021CDE901016C
:102F1000CDE9031069460348FEF72CFC05B000BD5F
:102F20000004004000100048704770B5044690F857
:102F30003C000D4601280ED0012684F83C6002209A
:102F400084F83D000C2A45D007DC5AB1042A1BD076
:102F5000082A78D12CE0022070BD102A4ED0142A05
:102F600071D15DE0206800F0B5FE2068816941F014
:102F7000080181612068816921F004018161206874
:102F800081692A69114311E0206800F0F1FE206890
:102F9000816941F4006181612068816921F4806167
:102FA0008161206881692A6941EA022181614AE0E0
:102FB000206800F025FF2068C16941F00801C16167
:102FC0002068C16921F00401C1612068C1692A69D2
:102FD000114311E0206800F05BFF2068C16941F4F3
:102FE0000061C1612068C16921F48061C16120680C
:102FF000C1692A6941EA0221C16124E0206800F028
:1030000081FF2068416D41F0080141652068416DF4
:1030100021F0040141652068416D2A69114311E0E6
:10302000206800F0A7FF2068416D41F40061416510
:103030002068416D21F4806141652068416D2A69F5
:1030400041EA0221416584F83D60002084F83C009B
:1030500070BD10B5040003D094F83D0010B107E036
:10306000012010BD002084F83C00204600F00CF840
:10307000022084F83D00211D206800F0B5FD0120EC
:1030800084F83D00002010BD08B50068064988425C
:1030900008D10648C16941F00201C161C06900F070
:1030A0000200009008BD0000000400400010024033
:1030B0007047000010B504460068012200F0ECFDE6
:1030C0000D48216881420BD00C48814208D00C4841
:1030D000814205D00B48814202D00B48814203D186
:1030E000486C40F4004048642068016841F00101E8
:1030F0000160002010BD0000002C014000340140A0
:1031000000400140004401400048014070477047C2
:103110007047704770B503680446D869196810F0A5
:103120000F0508D1820606D58A0604D52046BDE8DB
:10313000704001F031B89A68002D66D002F00105A8
:1031400001F490762E4360D0C60707D0CE0505D592
:1031500001261E62E36E43F00103E366830708D590
:10316000D30706D0266802233362E36E43F00403DC
:10317000E366430708D5D20706D0236804221A6203
:10318000E26E42F00202E26602070AD501F0200276
:103190002A4306D0236808221A62E26E42F008022F
:1031A000E266E26E002A29D0800604D5880602D5A0
:1031B000204600F0F1FFE06E000703D4206880682D
:1031C00040061CD5204600F0CCFF206881684906E7
:1031D00011D5816821F040018160606E58B11C49B1
:1031E0004163606EFEF780FA002807D0606E416B85
:1031F000BDE8704008472046FFF78BFF70BD2046B2
:10320000FFF787FF0020E06670BDC5020ED55202B1
:103210000CD54FF480101862202084F8690084F8DF
:103220006A002046BDE87040FFF772BF020606D56F
:103230000A0604D52046BDE8704001F0D3B8400628
:10324000E2D54806E0D52046BDE8704000F097BFC3
:103250004F41000810B5040003D094F8690010B184
:1032600007E0012010BD002084F86800204600F02F
:1032700027F8242084F869002068016821F0010102
:103280000160204600F0C4FF0128EBD0606A10B155
:10329000204600F0CAFE2068416821F49041416058
:1032A0002068816821F02A0181602068016841F06E
:1032B000010101602046BDE8104000F01ABF000087
:1032C00000B50068124987B088421FD11148C16912
:1032D00041F40031C161C069694600F400300590D5
:1032E0000C20009002200190002002900320039007
:1032F000072004904FF09040FEF73CFA0022012195
:103300002620FEF767FC2620FEF758FC07B000BD1C
:10331000004400400010024090F86A30202B36D163
:1033200099B192B190F86830012B30D0012380F828
:1033300068304165A0F85820A0F85A208168FF2223
:10334000B1F5805F03D039B10BE00120704701690E
:10335000D1B940F2FF1102E00169A9B17F21A0F8C3
:103360005C100021C166222280F86A2080F8681073
:1033700001688A6842F001028A600068016841F4CD
:103380009071016000207047A0F85C20E9E70220FE
:10339000704770472DE9F843044690F869001F46CE
:1033A00016460D4620284DD1CDB1C6B194F868001F
:1033B000012847D0012084F868004FF00008C4F8C5
:1033C0006C80212084F869005034FEF7A1FA24F8BB
:1033D000026B814624F852694FF4805618E00120B0
:1033E000BDE8F883B4F85200401EA4F852004B46E2
:1033F000002280212046009701F026F8A0B9A0689D
:10340000B04201D1206988B115F8010B2168088507
:10341000B4F852000028E5D14B4600224021204656
:10342000009701F011F830B10320D9E735F8020B0D
:10343000C0F30800EAE7202084F8690084F8688077
:103440000020CDE70220CBE77047FEE7F0B589B05A
:103450000C460F49DDE9106591F800E00021DDE937
:103460000EC705910691CDE9003C079108911346DE
:10347000BEF1000F02972246014601D0012000E074
:103480000020CDE9036501F009FB09B0F0BD0000A3
:103490000000002030B5194889B04FF0A041002449
:1034A000C0E900140461C46101254462C0E90B5401
:1034B00010210562C0E9021404214463C0E9051427
:1034C0008463FDF7C3FE00B1FEE706A90B4806942E
:1034D000FDF7CEFA00B1FEE70220CDE90005072096
:1034E000CDE902040494694604480594FDF74AFBBB
:1034F000002800D0FEE709B030BD00009C0100208C
:1035000030B5164887B014490024C0E9001404619E
:10351000C46101254462C0E90B5410210562C0E971
:10352000021404214463C0E905148463FDF78EFE90
:1035300000B1FEE70520CDE900050720CDE9020432
:103540000494694605480594FDF71CFB002800D04B
:10355000FEE707B030BD000000010050F001002080
:1035600030B5194889B017490024C0E90014046136
:10357000C46101254462C0E90B5410210562C0E911
:10358000021404214463C0E905148463FDF75EFE60
:1035900000B1FEE706A90C480694FDF769FA00B1F0
:1035A000FEE70520CDE900050720CDE902040494DB
:1035B000694605480594FDF7E5FA002800D0FEE7C6
:1035C00009B030BD00040050440200202DE9F0474E
:1035D000534886B0416941F400114161416901F4E9
:1035E00000110591416941F400214161416901F4F3
:1035F00000210591416941F480014161416901F473
:1036000080010591416941F400314161416901F452
:1036100000310591416941F480214161416901F422
:1036200080210591416941F48011416140693D4E1D
:1036300000F480104FF608740590002221463046B1
:10364000FEF761F94FF480784FF09049002241462F
:103650004846FEF758F9DFF8D0A00022F021504686
:10366000FEF751F90125CDE9004500240294694691
:1036700030460394FEF77EF8CDE90054694648468B
:103680000294FEF777F81720284E02278DE8C10034
:1036900069462748FEF76EF86802CDE900066946DC
:1036A00002942448FEF766F8CDE90274CDE900855E
:1036B00069464846FEF75EF8F0200090CDE90154D7
:1036C000694650460394FEF755F800220121062072
:1036D000FEF780FA0620FEF771FA0022012107208A
:1036E000FEF778FA0720FEF769FA00220121082088
:1036F000FEF770FA0820FEF761FA002201210A2085
:10370000FEF768FA0A20FEF759FA00220121172075
:10371000FEF760FA1720FEF751FA06B0BDE8F08711
:103720000010024000100048000C0048000011107A
:103730000004004800080048114810B50F49016016
:103740001049416000210122C0E90212016141617A
:103750008161C1610162FEF735F900B1FEE7002128
:103760000748FEF7DBF800B1FEE700210448FEF74A
:1037700000F9002800D0FEE710BD00000054004012
:10378000980200200E09002010B51B4886B0194988
:103790000024C0E900142721816040F2E731C0E92C
:1037A000031444618461FEF7EDFF00B1FEE78DF87C
:1037B00000408DF801408DF80240039401226946D3
:1037C0000D480494FFF7ACF800B1FEE701208DF836
:1037D00014008DF815008DF8160002468DF817407C
:1037E00005A90548FFF738F8002800D0FEE706B025
:1037F00010BD000000280040E4020020104810B571
:103800000E4901604FF48271416000214FF4407213
:10381000C0E902124FF400720161C0E905120822EA
:10382000C0E9072107234162C0E90A13C0E90C126D
:10383000FFF709F9002800D0FEE710BD0030014075
:103840000403002010B5134888B04FF08041016098
:1038500040F2CF210024C0E9011442F21071C0E906
:1038600003148461FFF7C2F900B1FEE74FF4805002
:10387000039003A90748FFF7FDF900B1FEE70094A4
:10388000694604480294FFF785F9002800D0FEE756
:1038900008B010BD6803002010B515488AB0134960
:1038A000016048210024C0E901146421C0E9031427
:1038B0008461FFF7CEFB00B1FEE7079407A90C482F
:1038C0000994FFF767F900B1FEE76020CDE9000435
:1038D00002940022694606480494FFF726FB00B1D3
:1038E000FEE70348FFF708FB0AB010BD00040040E4
:1038F000A80300200C4810B50A4901604FF4E131DB
:103900004160002181600C22C160C0E90412816124
:10391000C16101624162FFF79DFC002800D0FEE713
:1039200010BD000000440040E8030020FEE770479F
:103930000907090E002806DA00F00F0000F1E02068
:1039400080F8141D704700F1E02080F800147047E3
:103950007047010901EB810100F00F0000EB41000D
:10396000C0B27047002102E00A38C0B2491C0A28E0
:10397000FAD2090740EA11607047000070B50446AA
:103980000068C168490614D44FF0FF31C160FDF7EB
:10399000BFFF05464FF47A7607E000BFFDF7B8FF9A
:1039A000401BB04201D9032070BD2068C0684006AA
:1039B000F4D5002070BD704710B5FEF785F8BDE85E
:1039C0001040FFF7E0B8000030B59FB00B200F901B
:1039D0004FF4A0200024CDE9100401201021CDE9EE
:1039E00013010225CDE91505000417904FF4E010EE
:1039F00018900FA8FEF7B0FB00B1FEE70F20CDE94D
:103A000019054FF48060CDE91B40022119A81D94CF
:103A1000FEF798FA00B1FEE7114800904FF480706D
:103A2000099040010A9000110190039407940E94AC
:103A30006846FEF77BF900B1FEE7FEF725FB4FF481
:103A40007A71B0FBF1F0FFF78AF80420FFF77AF8FB
:103A500000221146501EFEF7BDF81FB030BD000019
:103A6000A20103001448016841F470010160134889
:103A7000016841F0010101604168114A1140416053
:103A80000168104A11400160016821F48021016041
:103A9000416821F4FE014160C16A21F00F01C16259
:103AA000016B094A11400163002181600249C00392
:103AB000803908607047000088ED00E00010024087
:103AC0000CC07FF8FFFFF6FECCFC00FFFEB5374EC2
:103AD000374D384C3068002840D1122028702D20F6
:103AE00068700020A870062020700B20A0700520B0
:103AF00060701320E070002229462F48FEF710FF67
:103B0000002221462C48FEF7A7FE2C48FDF72CFD8D
:103B10002B48FDF729FD2B48FDF726FD01222A49F8
:103B20002A48FFF7F9FB00212948FFF7C3FA294F7C
:103B3000012210213846FDF7E6FE012220213846F9
:103B4000FDF7E1FE012240213846FDF7DCFE0122AF
:103B500080213846FDF7D7FE012030601E4E3068C8
:103B600010B1FCF7F2FD30601C4801681C4829B117
:103B700001290ED002290FD003290FD1006802902D
:103B8000206801902869009095E80F0001F0C4F8C2
:103B900004E001F08FF801E001F062F81148FFF74E
:103BA000E8F8BDE8FE400F48FFF758B8380000209D
:103BB0000008002024000020E40200209C010020D6
:103BC000F00100204402002032000020E803002021
:103BD000A8030020000C004818000020140000205A
:103BE0001C000020680300202DE9F0430268234BED
:103BF000234D244E244C4FF08049984207D048452D
:103C000005D0A84203D0B04201D0A04203D122F097
:103C100070074A683A431D4FDFF874C0DFF87480BC
:103C200098420DD048450BD0A84209D0B04207D0E9
:103C3000A04205D0B84203D0604501D0404503D131
:103C400022F44075CA682A434D6922F080022A4353
:103C500002608A68C2620A688262984207D0A04203
:103C600005D0B84203D0604501D0404501D1096973
:103C7000016301214161BDE8F0830000002C014097
:103C800000040040000800400034014000400140B2
:103C9000004401400048014010B50123046A8B40F4
:103CA0009C430462036A8A401343036210BD10B54B
:103CB000846842EA032224F47F440A432243826058
:103CC00010BD826822F070020A4342F00701816051
:103CD000704700002DE9F043026A22F001020262FF
:103CE000056A436882691C4C25F0020522400C6875
:103CF00022F0030214438A68194E2A43174D194FC4
:103D0000DFF864C0DFF86490A84207D0B04205D065
:103D1000B84203D0604501D0484506D122F00808DA
:103D2000CA6842EA080222F00402A84207D0B04260
:103D300005D0B84203D0604501D0484505D14D6952
:103D400023F440731D438B692B43436084614968AE
:103D500041630262BDE8F0838FFFFEFF002C01404B
:103D6000003401400040014000440140004801404F
:103D7000F0B5026A22F010020262056A42688369A5
:103D8000194C1B4E23400C6823F4407343EA04246F
:103D900025F020038D6843EA0513144DA84201D095
:103DA000B04206D1CF6823F0800343EA071323F023
:103DB0004003A8420AD0B04208D00E4DA84205D018
:103DC0000D4DA84202D00D4DA84207D14D6922F4F5
:103DD000406242EA85028D6942EA8502426084615E
:103DE000496881630362F0BDFF8FFFFE002C014034
:103DF00000340140004001400044014000480140BF
:103E0000F0B5026A22F480720262056A4368C269F0
:103E1000194C1B4E22400C6822F00302144325F477
:103E200000728D6842EA0522144DA84201D0B042CA
:103E300006D1CF6822F4006242EA072222F48062AF
:103E4000A8420AD0B04208D00E4DA84205D00E4D6F
:103E5000A84202D00D4DA84207D14D6923F440532A
:103E600043EA05138D6943EA05134360C461496859
:103E7000C1630262F0BD00008FFFFEFF002C014015
:103E8000003401400040014000440140004801402E
:103E900030B5026A22F480520262046A4268C36941
:103EA000124D24F400542B400D6823F4407343EA70
:103EB00005238D6844EA05340D4DA8420BD00D4D05
:103EC000A84208D00C4DA84205D00C4DA84202D003
:103ED0000B4DA84204D14D6922F4804242EA85127A
:103EE0004260C36149680164046230BDFF8FFFFE18
:103EF000002C0140003401400040014000440140DA
:103F00000048014030B5026A22F480320262046A3D
:103F10004268436D114D2B400D681D4324F400335E
:103F20000C8943EA04430E4CA0420BD00D4CA04236
:103F300008D00D4CA04205D00C4CA04202D00C4C35
:103F4000A04204D14C6922F4803242EA0422426049
:103F5000456549688165036230BD00008FFFFEFF43
:103F6000002C014000340140004001400044014069
:103F70000048014030B5026A22F480120262046AED
:103F80004268436D114D24F400142B400D6843EA40
:103F900005230D8944EA05540D4DA8420BD00D4D63
:103FA000A84208D00C4DA84205D00C4DA84202D022
:103FB0000B4DA84204D14D6922F4802242EA8522A9
:103FC000426043654968C165046230BDFF8FFFFEF2
:103FD000002C0140003401400040014000440140F9
:103FE0000048014010B5036A046A24F00104046229
:103FF000846924F0F00444EA021423F00A020A431C
:104000008461026210BD10B5036A23F010030362DD
:104010008369046A23F4704343EA023224F0A00364
:1040200043EA01118261016210BD90F82410C907B2
:1040300006D001684A68836A22F400321A434A6053
:1040400090F82410890706D501684A68C36A22F4EB
:1040500080321A434A6090F82410490706D5016857
:104060004A68036B22F480221A434A6090F82410B5
:10407000090706D501684A68436B22F400421A43D7
:104080004A6090F82410C90606D501688A68836BD7
:1040900022F480521A438A6090F82410890606D5CB
:1040A00001688A68C36B22F400521A438A6090F850
:1040B0002410490611D501684A68036C22F4801265
:1040C0001A434A60016CB1F5801F06D101684A6845
:1040D000436C22F4C0021A434A6090F82410090687
:1040E00006D501684A68806C22F4002202434A60C7
:1040F0007047F8B500260446C666FDF709FC05467C
:10410000206800686FF07E47000708D52B46002224
:104110004FF400112046009700F096F960B920682E
:10412000006840070AD52B4600224FF48001204644
:10413000009700F089F908B10320F8BD202084F829
:10414000690084F86A0084F868600020F8BD10B542
:10415000406A0021A0F85A10A0F85210FEF7D9FFCB
:1041600010BD01680A6822F490720A6001688A68CA
:1041700022F001028A60202180F86A10704710B591
:1041800001680A6822F040020A60202180F8691064
:10419000FFF75AF9002010BD10B5B0F85C2090F878
:1041A0006A300168222B05D0886940F008008861D8
:1041B000022010BD898C8368B3F5805F01D103694B
:1041C0006BB11140426D531C43651170B0F85A1029
:1041D000491E0904090CA0F85A1007D015E0436DD8
:1041E00011401980416D891C4165EFE701680A683B
:1041F00022F490720A6001688A6822F001028A60E3
:10420000202180F86A10FFF7C4F8002010BD0000DC
:104210002DE9F041044610202369A268E6691A439B
:104220006369002133431A4323680D461E6849F22F
:104230000C67BE4316431E6022685368E66823F489
:10424000405333435360236AA2691A4323689E682C
:1042500026F4306616439E605A4F22685A4B060376
:10426000BA420CD11B6B13F0030306D0012B4DD0C7
:10427000022B4DD0032B4CD146E0012049E0534F97
:10428000BA420CD11B6B13F440333BD0B3423DD048
:10429000B3F5003F3CD0B3F5403F3AD134E04C4F4A
:1042A000BA420DD11B6B13F440232BD0B3F5802FF2
:1042B0002CD0B3F5002F2BD0B3F5402F29D123E01C
:1042C000444FBA420DD11B6B13F440131AD0B3F50F
:1042D000801F1BD0B3F5001F1AD0B3F5401F18D1B3
:1042E00012E03D4FBA4214D11B6B13F4400309D0C6
:1042F000B3F5800F0AD0B3F5000F09D0B3F5400F26
:1043000007D101E0002004E0022002E0042000E0E8
:104310000820E7694FF400439F4226D109281DD2A7
:10432000DFE800F00508121C151C1C1C1800FDF726
:10433000B1FE01E0FDF7C6FE4100606801EB5001EF
:10434000B1FBF0F081B20AE024496068F6E7FDF7BE
:10435000D1FEF1E7606806EB5001F1E7012521F09D
:104360000F00C1F3420108431CE0092825D2DFE811
:1043700000F005080B24102424241C00FDF78AFEFD
:1043800009E0FDF79FFE06E01549606801EB50016A
:104390000EE0FDF7AFFE0146606801EB5001B1FB96
:1043A000F0F080B22168C86008E0606803EB50015B
:1043B000B1FBF0F080B2D06000E001252846BDE8F6
:1043C000F08100000038014000100240004400402D
:1043D00000480040004C0040005000400024F40021
:1043E00000127A0090F86910212901D0022070474C
:1043F000B0F8521021B18168B1F5805F0BD00CE0AC
:1044000001680A6822F080020A600068016841F0D1
:10441000400101600CE0016961B1C16C4A1CC264D9
:1044200002680978A2F8281030F8521F491E01804E
:1044300000207047C16C02680988C1F3080111852A
:10444000C16C891CC164EFE72DE9F041984617461D
:104450000E460446069D1DE0681C1BD02DB1FDF7DD
:1044600057FAA0EB0800A84214D92068016821F48B
:10447000D07101602068816821F0010181602020F5
:1044800084F8690084F86A00002084F8680003203A
:10449000BDE8F0812068C06936EA000004D0002041
:1044A000B842D9D00020F3E70120F9E710B51C4845
:1044B000FEF730FE1B481C4A002104781B480D2CD7
:1044C00005D01368C4545B1C1360C15418E011601C
:1044D00002782A2A14D142782A2A11D182782A2AEB
:1044E0000ED1C2782A2A0BD102792A2A08D1427920
:1044F00032B90F4A012314684CB111600D480360B2
:10450000BDE81040012207490548FEF705BF2021FC
:104510001360017041708170C17001714171EDE7EC
:10452000E80300203200002034000020700000204A
:104530001400002018000020FEE700000FB4084B14
:1045400010B504A902AA039800F01CF8044602A9B9
:10455000002000F0C1F8204610BC5DF814FB0000FC
:10456000D946000802E008C8121F08C1002AFAD183
:1045700070477047002001E001C1121F002AFBD1E3
:10458000704700002DE9FF4F89B09B460446002587
:1045900006E025280BD05A460B999047641C6D1CE9
:1045A00020780028F5D10DB02846BDE8F08F00270F
:1045B000B8460122474900E0074314F8013F203B79
:1045C00002FA03F00842F7D120782E2819D114F806
:1045D000010F47F004072A280ED06FF02F02207831
:1045E000A0F1300109290CD808EB880102EB410148
:1045F00000EB0108641CF2E70A98641C50F8048B75
:104600000A9020780028CED0642808D0692806D0E7
:1046100075281ED05A460B9990476D1C58E00A9990
:104620004FF00A0901C90A91002802DA40422D21FF
:1046300002E0390504D52B218DF82010012103E07B
:10464000F90704D02021F7E78A4608AE0DE00021E3
:10465000FAE70A994FF00A0901C90A91F7E74946B2
:10466000FBF704FE303106F8011D0028F7D1ADEB51
:10467000060000F12009780701D44FF00108C84571
:1046800002DDA8EB090000E000208046002706E0DC
:1046900008A85A46C05D0B9990476D1C7F1C574572
:1046A000F6DB04E030205A460B9990476D1CB8F1B8
:1046B0000001A8F10108F5DC05E016F8010B5A46E7
:1046C0000B9990476D1CB9F10001A9F10109F4DCC7
:1046D000641C65E7092801000A68531C0B60107010
:1046E0007047000030B54B4C85B00D46012903D909
:1046F000A17841F00801A17000F140030246657104
:104700004021002000F0A2FA607828B1012D03D1E9
:10471000A07840F00400A07000F00AF90320039094
:104720000120019021783C480029E28801886389B2
:1047300041EA0201228942EA030241EA0201428877
:1047400041EA0201828841EA020101D0C08808E002
:10475000C288114302891143428911438289C08969
:104760001143014300916946E068FDF703F83220E8
:10477000FCF7E0FF0022E188E068FDF7C4F80022C2
:104780006189E068FDF7BFF82189FF2903D0002285
:10479000E068FDF7B8F8A078C10615D4032000F052
:1047A0007BFC0520FCF7C6FF032000F075FC05200C
:1047B000FCF7C0FF032000F06FFC0120FCF7BAFFFC
:1047C000022000F069FC13E040F0200000F02FF818
:1047D0000520FCF7AFFFA07840F0200000F027F89C
:1047E0000120FCF7A7FFA07840F0200000F01FF8A0
:1047F000A07840F0200000F01AF80420E07000F0EB
:104800008BF800F00BF802202071062000F00FF862
:1048100005B030BD000000206000002010B5012070
:1048200000F005F8BDE810400220FCF783BF00212E
:1048300000F0D6B970B50D4600F00700402141EAFE
:10484000C000FFF7F4FF00240121285D00F0C8F943
:10485000641C082CF8DB70BD2C4810B58268103041
:104860000B2A21D008DC2A48022A0CD03C21052A38
:104870000CD0082A3BD110E00E2A1ED0112A25D0D8
:10488000142A34D12BE0017818220FE04278521E0E
:1048900092FBF1F301FB132116E08278521E92FB8A
:1048A000F1F301FB132118E001780722491E91FB67
:1048B000F2F302FB1311017019E041780C22491E3A
:1048C00091FBF2F302FB1311417010E081781F227B
:1048D000491E91FBF2F302FB1311817007E0C178CE
:1048E0006422491E91FBF2F302FB1311C1700849C7
:1048F0000022A1F21C50FEF713F804490022BDE883
:10490000104010310348FDF7A7BF0000140000203D
:1049100000080020E40200200449C87840F00400A8
:10492000C87040F00800FFF782BF000000000020C0
:10493000234808B5C1682348B1F1904F0BD0224AF3
:10494000914210D1416941F480214161406900F4F4
:104950008020009008BD416941F400314161406907
:1049600000F40030F5E7194A914207D1416941F45A
:1049700000214161406900F40020EAE7144A9142B5
:1049800007D1416941F480114161406900F4801010
:10499000DFE7104A914207D1416941F400114161BA
:1049A000406900F40010D4E70B4A9142D2D141692A
:1049B00041F480014161406900F48000C9E70000D2
:1049C00000000020001002400004004800080048D9
:1049D000000C004800100048001400482C4810B596
:1049E000826810300B2A21D008DC2A48022A0CD019
:1049F0003C21052A0CD0082A3BD110E00E2A1ED0FB
:104A0000112A25D0142A34D12BE0017818220FE086
:104A10004278521CB2FBF1F301FB132116E08278BD
:104A2000521CB2FBF1F301FB132118E001780722BD
:104A3000491CB1FBF2F302FB1311017019E041783C
:104A40000C22491CB1FBF2F302FB1311417010E080
:104A500081781F22491CB1FBF2F302FB1311817014
:104A600007E0C1786422491CB1FBF2F302FB131189
:104A7000C17008490022A1F21C50FDF751FF044902
:104A80000022BDE8104010310348FDF7E5BE0000EC
:104A90001400002000080020E40200202DE9F05F4F
:104AA0000AAC94E8E05F0F4CE28023816581E1600D
:104AB0000D490E804F80A1F80480A1F80690A1F85E
:104AC00008A0A1F80AB0A1F80CC0A1F80EE008B146
:104AD000002000E01020A070BDE8F05F022110204F
:104AE000FFF700BE00000020600000201FB5FCF7AB
:104AF000F3FFFEF769FFFEF769FDFEF71DFEFEF707
:104B00007DFE1C481A49022201600821C0E90112F9
:104B10000021C0E9031281610162FDF78DF800B147
:104B2000FEE7FEF731FEFEF7E5FEFEF78BFEFEF731
:104B3000B1FCFEF7E5FCFEF713FDFEF7ADFE4FF40A
:104B400080435A10511048108DE80F004310821016
:104B5000C1100948FEF77AFC04211420FFF7C2FDBA
:104B600000F0D6F90348F038FEF778F8FEE70000C9
:104B7000005C004058040020000C004870B500287C
:104B80000FD00446FBF738FB0546002606E000BFC1
:104B900014F8010B012100F023F8761C6D1EF7D2EA
:104BA000304670BD10B50D4C00226189E068FCF7FD
:104BB000AAFE0120FCF7BEFD01226189E068FCF736
:104BC000A2FE0120FCF7B6FD00226189E068FCF737
:104BD0009AFEBDE810400120FCF7ACBD00000020AB
:104BE00070B50F4C05460A46E188E068FCF78BFE7D
:104BF0002189FF2903D00022E068FCF784FEA07819
:104C0000C00604D52846BDE8704000F05FBA280908
:104C100000F042FA2846BDE8704000F03DBA0000BE
:104C200000000020042900D30321074A5279914251
:104C300001D3521ED1B2044A1032515C0844C0B2B2
:104C400040F08000FFF7F3BD0000002010B5034CDA
:104C500020706170A270E37010BD00001000002091
:104C600010B500210420FFF7DDFF1048FFF786FF95
:104C700000210820FFF7D6FF0DA0FFF77FFF0021DE
:104C80000B20FFF7CFFF062000F000FA00210C20D8
:104C9000FFF7C8FF052000F0F9F900210D20FFF70C
:104CA000C1FFBDE81040042000F0F0B93801002039
:104CB000254C000010B500210420FFF7B3FF144875
:104CC000FFF75CFF00210820FFF7ACFF032000F096
:104CD000DDF900210920FFF7A5FF0EA0FFF74EFF29
:104CE00000210B20FFF79EFF022000F0CFF90021EA
:104CF0000C20FFF797FF012000F0C8F900210D20DC
:104D0000FFF790FFBDE81040002000F0BFB90000A1
:104D1000D4000020430000000FB4F0B571A02DEDC9
:104D2000028B8DB01A9DFFF729FF002214A96E484F
:104D3000FDF7FCFC002219A96B48FDF7D5FC9DF896
:104D400050000C2804D40C388DF8500067A100E006
:104D500067A10CA8FBF757FA66A00088ADF8100011
:104D60009DF8500000F0CCF9014604A8FBF738FA92
:104D700061A104A8FBF734FA9DF8510000F0C0F9D6
:104D8000014604A8FBF72CFA5BA104A8FBF728FA5C
:104D90009DF8520000F0B4F9014604A8FBF720FA90
:104DA00054A104A8FBF71CFA9FED548B2024554E08
:104DB000092D11DA9DF85200F168401A00D54042E1
:104DC000FBF72AFA53EC182BFBF738FA04D204A8A5
:104DD00044559DF85200F06000210320FFF722FFA8
:104DE00004A8FFF7CBFE0CA8FFF7C8FE9DF86620CD
:104DF00045A107A8FFF7A2FB0DF126009DF867204B
:104E000041A10746FFF79AFB3AA00088ADF80000E1
:104E10009DF8640000F016F901466846FBF7E0F9DA
:104E200034A16846FBF7DCF99DF8650000F0D0F886
:104E300001466846FBF7D4F92EA16846FBF7D0F986
:104E400007A96846FBF7CCF930A16846FBF7C8F91B
:104E500039466846FBF7C4F926A16846FBF7C0F956
:104E600001210220FFF7DEFE082D31DD9DF8520002
:104E7000F168401A00D54042FBF7CEF953EC182BED
:104E8000FBF7DCF924D2E81705EB507020F007009F
:104E9000281A012806D0032807D004280CD0062899
:104EA00013D10CE08DF80A400FE08DF803408DF827
:104EB00002408DF8014008E08DF80F4005E08DF8C4
:104EC00005408DF806408DF807409DF85200F060CF
:104ED0006846FFF753FE0DB0BDEC028BF0BC5DF8E9
:104EE00014FB000000000000E4020020504D000010
:104EF000414D0000200000003A00000000000000CA
:104F00000000D03F14000020256400002C32300047
:104F100000B521A08FB0D0E90010CDE9001020A08D
:104F2000D0E90010CDE902101FA0D0E90010CDE9B2
:104F300004101FA0D0E90010CDE906101EA0D0E992
:104F40000010CDE908101EA0D0E90010CDE90A102C
:104F50001DA0D0E90010CDE90C1069460020FFF734
:104F600069FC02A90120FFF765FC04A90220FFF7F4
:104F700061FC06A90320FFF75DFC08A90420FFF7E8
:104F800059FC0AA90520FFF755FC0CA90620FFF7DC
:104F900051FC0FB000BD000000000C06030F000024
:104FA0000000000E0A1E00000101010101010000C5
:104FB000040A04000000000000000200021E0000BD
:104FC0000000040A060204080000000002040810A1
:104FD0000C281DD2DFE800F01C06080A0C0E101287
:104FE0001416181A0BA070470BA070470BA070473F
:104FF0000BA070470BA070470BA070470BA0704729
:105000000BA070470BA070470BA070470BA0704718
:105010000BA070474A616E00466562004D617200E8
:10502000417072004D6179004A756E004A756C00DE
:1050300041756700536570004F6374004E6F7600D2
:1050400044656300062810D2DFE800F00305070975
:105050000B0D07A0704707A0704707A0704707A077
:10506000704707A0704707A0704707A0704700006F
:105070004D4F4E0054554500574544005448550087
:10508000465249005341540053554E0010B501217A
:10509000FFF7A6FD012010BD2DE9F041094E0A4F92
:1050A0000546002425FA04F000F0010236F8141039
:1050B000F868FCF728FC641C042CF3DBBDE8F04125
:1050C000FFF770BD60000020000000202DE9F041D6
:1050D000094E0A4F0546002425FA04F000F00102AB
:1050E00036F81410F868FCF70EFC641C082CF3DB8F
:1050F000BDE8F041FFF756BD600000200000002031
:1051000070B50A2590FBF5F204460AA10A48FFF79C
:1051100015FA94FBF5F005FB1042074805A1401D68
:10512000FFF70CFA0449491D481FFBF759F80248DC
:1051300070BD000025640000280000200203040563
:10514000060708090A0B0C0D0E0F101001020304CC
:1051500005060708090A0B0C0D0E0F1000000000D1
:105160000000000001020304060708090000000017
:1051700001020304945100080000002060000000B8
:1051800064450008F451000860000020B80B0000DE
:10519000744500080100000000000000000000004D
:1051A00000000000000000000000000000000000FF
:1051B00000000000000000000000000000000000EF
:1051C00000000000000031000000000000000000AE
:1051D0004D6F74696F6E2044657465637465640017
:1051E00000000000010000001000000000000000AE
:0451F00000127A002F
:040000050800018965
:00000001FF
